{"contracts/Raffle.sol":{"Raffle":{"abi":[{"inputs":[{"internalType":"address","name":"vrfCoordinatorV2","type":"address"},{"internalType":"uint256","name":"entranceFee","type":"uint256"},{"internalType":"bytes32","name":"keyHash","type":"bytes32"},{"internalType":"uint64","name":"subscriptionId","type":"uint64"},{"internalType":"uint32","name":"callbackGasLimit","type":"uint32"},{"internalType":"uint256","name":"interval","type":"uint256"}],"stateMutability":"nonpayable","type":"constructor"},{"inputs":[{"internalType":"address","name":"have","type":"address"},{"internalType":"address","name":"want","type":"address"}],"name":"OnlyCoordinatorCanFulfill","type":"error"},{"inputs":[],"name":"Raffle__NotEnoughETHEntered","type":"error"},{"inputs":[],"name":"Raffle__NotOpen","type":"error"},{"inputs":[],"name":"Raffle__TransferFailed","type":"error"},{"inputs":[{"internalType":"uint256","name":"currentBalance","type":"uint256"},{"internalType":"uint256","name":"numPlayers","type":"uint256"},{"internalType":"uint256","name":"raffleState","type":"uint256"}],"name":"Raffle__UpkeepNotNeeded","type":"error"},{"anonymous":false,"inputs":[{"indexed":true,"internalType":"address","name":"player","type":"address"}],"name":"RaffleEnter","type":"event"},{"anonymous":false,"inputs":[{"indexed":true,"internalType":"uint256","name":"requestId","type":"uint256"}],"name":"RequestedRaffleWinner","type":"event"},{"anonymous":false,"inputs":[{"indexed":true,"internalType":"address","name":"winner","type":"address"}],"name":"WinnerPicked","type":"event"},{"inputs":[{"internalType":"bytes","name":"","type":"bytes"}],"name":"checkUpkeep","outputs":[{"internalType":"bool","name":"upkeepNeeded","type":"bool"},{"internalType":"bytes","name":"","type":"bytes"}],"stateMutability":"view","type":"function"},{"inputs":[],"name":"enterRaffle","outputs":[],"stateMutability":"payable","type":"function"},{"inputs":[],"name":"getEntranceFee","outputs":[{"internalType":"uint256","name":"","type":"uint256"}],"stateMutability":"view","type":"function"},{"inputs":[{"internalType":"uint256","name":"index","type":"uint256"}],"name":"getPlayers","outputs":[{"internalType":"address","name":"","type":"address"}],"stateMutability":"view","type":"function"},{"inputs":[],"name":"getRecentWinner","outputs":[{"internalType":"address","name":"","type":"address"}],"stateMutability":"view","type":"function"},{"inputs":[{"internalType":"bytes","name":"","type":"bytes"}],"name":"performUpkeep","outputs":[],"stateMutability":"nonpayable","type":"function"},{"inputs":[{"internalType":"uint256","name":"requestId","type":"uint256"},{"internalType":"uint256[]","name":"randomWords","type":"uint256[]"}],"name":"rawFulfillRandomWords","outputs":[],"stateMutability":"nonpayable","type":"function"}],"devdoc":{"author":"Marcxime","details":"This implements chainlink VRF V2 and Chainlink Keepers","kind":"dev","methods":{"checkUpkeep(bytes)":{"details":"This is the function that the Chainlink Keeper nodes call they look for the `upKeepNeeded to return true The following should be true in order return true: 1. Time interval should be passed 2. The lottery should have at least 1 playe, and have some ETH 3. Our subcription is funded with LINK 4. The lottery should be in an 'open' state."}},"title":"Raffle Contract","version":1},"evm":{"bytecode":{"linkReferences":{},"object":"6101406040523480156200001257600080fd5b5060405162001623380380620016238339818101604052810190620000389190620002cb565b858073ffffffffffffffffffffffffffffffffffffffff1660808173ffffffffffffffffffffffffffffffffffffffff1660601b81525050508460a08181525050600160009054906101000a900473ffffffffffffffffffffffffffffffffffffffff16600160006101000a81548173ffffffffffffffffffffffffffffffffffffffff021916908373ffffffffffffffffffffffffffffffffffffffff1602179055508360c081815250508267ffffffffffffffff1660e08167ffffffffffffffff1660c01b815250508163ffffffff166101008163ffffffff1660e01b815250506000600260146101000a81548160ff0219169083600181111562000144576200014362000367565b5b02179055504260038190555080610120818152505050505050505062000396565b600080fd5b600073ffffffffffffffffffffffffffffffffffffffff82169050919050565b600062000197826200016a565b9050919050565b620001a9816200018a565b8114620001b557600080fd5b50565b600081519050620001c9816200019e565b92915050565b6000819050919050565b620001e481620001cf565b8114620001f057600080fd5b50565b6000815190506200020481620001d9565b92915050565b6000819050919050565b6200021f816200020a565b81146200022b57600080fd5b50565b6000815190506200023f8162000214565b92915050565b600067ffffffffffffffff82169050919050565b620002648162000245565b81146200027057600080fd5b50565b600081519050620002848162000259565b92915050565b600063ffffffff82169050919050565b620002a5816200028a565b8114620002b157600080fd5b50565b600081519050620002c5816200029a565b92915050565b60008060008060008060c08789031215620002eb57620002ea62000165565b5b6000620002fb89828a01620001b8565b96505060206200030e89828a01620001f3565b95505060406200032189828a016200022e565b94505060606200033489828a0162000273565b93505060806200034789828a01620002b4565b92505060a06200035a89828a01620001f3565b9150509295509295509295565b7f4e487b7100000000000000000000000000000000000000000000000000000000600052602160045260246000fd5b60805160601c60a05160c05160e05160c01c6101005160e01c61012051611226620003fd60003960006106af0152600061053301526000610510015260006104ef0152600081816101a6015261028c0152600081816101cc015261022001526112266000f3fe6080604052600436106100705760003560e01c80634585e33b1161004e5780634585e33b146100d3578063460e2049146100fc578063473f1ddc146101395780636e04ff0d1461016457610070565b806309bc33a7146100755780631fe543e3146100a05780632cfcc539146100c9575b600080fd5b34801561008157600080fd5b5061008a6101a2565b6040516100979190610a0a565b60405180910390f35b3480156100ac57600080fd5b506100c760048036038101906100c29190610bbe565b6101ca565b005b6100d161028a565b005b3480156100df57600080fd5b506100fa60048036038101906100f59190610c75565b6103f9565b005b34801561010857600080fd5b50610123600480360381019061011e9190610cc2565b6105fb565b6040516101309190610d30565b60405180910390f35b34801561014557600080fd5b5061014e610642565b60405161015b9190610d30565b60405180910390f35b34801561017057600080fd5b5061018b60048036038101906101869190610e00565b61066c565b604051610199929190610eec565b60405180910390f35b60007f0000000000000000000000000000000000000000000000000000000000000000905090565b7f000000000000000000000000000000000000000000000000000000000000000073ffffffffffffffffffffffffffffffffffffffff163373ffffffffffffffffffffffffffffffffffffffff161461027c57337f00000000000000000000000000000000000000000000000000000000000000006040517f1cf993f4000000000000000000000000000000000000000000000000000000008152600401610273929190610f1c565b60405180910390fd5b6102868282610719565b5050565b7f00000000000000000000000000000000000000000000000000000000000000003410156102e4576040517fbd4e069500000000000000000000000000000000000000000000000000000000815260040160405180910390fd5b600060018111156102f8576102f7610f45565b5b600260149054906101000a900460ff16600181111561031a57610319610f45565b5b14610351576040517f1425571c00000000000000000000000000000000000000000000000000000000815260040160405180910390fd5b6000339080600181540180825580915050600190039060005260206000200160009091909190916101000a81548173ffffffffffffffffffffffffffffffffffffffff021916908373ffffffffffffffffffffffffffffffffffffffff1602179055503373ffffffffffffffffffffffffffffffffffffffff167f0805e1d667bddb8a95f0f09880cf94f403fb596ce79928d9f29b74203ba284d460405160405180910390a2565b60006104136040518060200160405280600081525061066c565b509050806104825747600080549050600260149054906101000a900460ff16600181111561044457610443610f45565b5b6040517f584327aa00000000000000000000000000000000000000000000000000000000815260040161047993929190610f74565b60405180910390fd5b6001600260146101000a81548160ff021916908360018111156104a8576104a7610f45565b5b02179055506000600160009054906101000a900473ffffffffffffffffffffffffffffffffffffffff1673ffffffffffffffffffffffffffffffffffffffff16635d3b1d307f00000000000000000000000000000000000000000000000000000000000000007f000000000000000000000000000000000000000000000000000000000000000060037f000000000000000000000000000000000000000000000000000000000000000060016040518663ffffffff1660e01b8152600401610574959493929190611023565b602060405180830381600087803b15801561058e57600080fd5b505af11580156105a2573d6000803e3d6000fd5b505050506040513d601f19601f820116820180604052508101906105c6919061108b565b9050807fcd6e45c8998311cab7e9d4385596cac867e20a0587194b954fa3a731c93ce78b60405160405180910390a250505050565b60008082815481106106105761060f6110b8565b5b9060005260206000200160009054906101000a900473ffffffffffffffffffffffffffffffffffffffff169050919050565b6000600260009054906101000a900473ffffffffffffffffffffffffffffffffffffffff16905090565b600060606000600260149054906101000a900460ff16600181111561069457610693610f45565b5b600060018111156106a8576106a7610f45565b5b14905060007f0000000000000000000000000000000000000000000000000000000000000000600354426106dc9190611116565b119050600080600080549050119050600080471190508380156106fc5750825b80156107055750815b801561070e5750805b955050505050915091565b6000808054905082600081518110610734576107336110b8565b5b60200260200101516107469190611179565b9050600080828154811061075d5761075c6110b8565b5b9060005260206000200160009054906101000a900473ffffffffffffffffffffffffffffffffffffffff16905080600260006101000a81548173ffffffffffffffffffffffffffffffffffffffff021916908373ffffffffffffffffffffffffffffffffffffffff1602179055506000600260146101000a81548160ff021916908360018111156107f1576107f0610f45565b5b0217905550600067ffffffffffffffff81111561081157610810610a7b565b5b60405190808252806020026020018201604052801561083f5781602001602082028036833780820191505090505b506000908051906020019061085592919061094a565b504260038190555060008173ffffffffffffffffffffffffffffffffffffffff1647604051610883906111db565b60006040518083038185875af1925050503d80600081146108c0576040519150601f19603f3d011682016040523d82523d6000602084013e6108c5565b606091505b5050905080610900576040517fa1d04b3900000000000000000000000000000000000000000000000000000000815260040160405180910390fd5b8173ffffffffffffffffffffffffffffffffffffffff167f5b690ec4a06fe979403046eaeea5b3ce38524683c3001f662c8b5a829632f7df60405160405180910390a25050505050565b8280548282559060005260206000209081019282156109c3579160200282015b828111156109c25782518260006101000a81548173ffffffffffffffffffffffffffffffffffffffff021916908373ffffffffffffffffffffffffffffffffffffffff1602179055509160200191906001019061096a565b5b5090506109d091906109d4565b5090565b5b808211156109ed5760008160009055506001016109d5565b5090565b6000819050919050565b610a04816109f1565b82525050565b6000602082019050610a1f60008301846109fb565b92915050565b6000604051905090565b600080fd5b600080fd5b610a42816109f1565b8114610a4d57600080fd5b50565b600081359050610a5f81610a39565b92915050565b600080fd5b6000601f19601f8301169050919050565b7f4e487b7100000000000000000000000000000000000000000000000000000000600052604160045260246000fd5b610ab382610a6a565b810181811067ffffffffffffffff82111715610ad257610ad1610a7b565b5b80604052505050565b6000610ae5610a25565b9050610af18282610aaa565b919050565b600067ffffffffffffffff821115610b1157610b10610a7b565b5b602082029050602081019050919050565b600080fd5b6000610b3a610b3584610af6565b610adb565b90508083825260208201905060208402830185811115610b5d57610b5c610b22565b5b835b81811015610b865780610b728882610a50565b845260208401935050602081019050610b5f565b5050509392505050565b600082601f830112610ba557610ba4610a65565b5b8135610bb5848260208601610b27565b91505092915050565b60008060408385031215610bd557610bd4610a2f565b5b6000610be385828601610a50565b925050602083013567ffffffffffffffff811115610c0457610c03610a34565b5b610c1085828601610b90565b9150509250929050565b600080fd5b60008083601f840112610c3557610c34610a65565b5b8235905067ffffffffffffffff811115610c5257610c51610c1a565b5b602083019150836001820283011115610c6e57610c6d610b22565b5b9250929050565b60008060208385031215610c8c57610c8b610a2f565b5b600083013567ffffffffffffffff811115610caa57610ca9610a34565b5b610cb685828601610c1f565b92509250509250929050565b600060208284031215610cd857610cd7610a2f565b5b6000610ce684828501610a50565b91505092915050565b600073ffffffffffffffffffffffffffffffffffffffff82169050919050565b6000610d1a82610cef565b9050919050565b610d2a81610d0f565b82525050565b6000602082019050610d456000830184610d21565b92915050565b600080fd5b600067ffffffffffffffff821115610d6b57610d6a610a7b565b5b610d7482610a6a565b9050602081019050919050565b82818337600083830152505050565b6000610da3610d9e84610d50565b610adb565b905082815260208101848484011115610dbf57610dbe610d4b565b5b610dca848285610d81565b509392505050565b600082601f830112610de757610de6610a65565b5b8135610df7848260208601610d90565b91505092915050565b600060208284031215610e1657610e15610a2f565b5b600082013567ffffffffffffffff811115610e3457610e33610a34565b5b610e4084828501610dd2565b91505092915050565b60008115159050919050565b610e5e81610e49565b82525050565b600081519050919050565b600082825260208201905092915050565b60005b83811015610e9e578082015181840152602081019050610e83565b83811115610ead576000848401525b50505050565b6000610ebe82610e64565b610ec88185610e6f565b9350610ed8818560208601610e80565b610ee181610a6a565b840191505092915050565b6000604082019050610f016000830185610e55565b8181036020830152610f138184610eb3565b90509392505050565b6000604082019050610f316000830185610d21565b610f3e6020830184610d21565b9392505050565b7f4e487b7100000000000000000000000000000000000000000000000000000000600052602160045260246000fd5b6000606082019050610f8960008301866109fb565b610f9660208301856109fb565b610fa360408301846109fb565b949350505050565b6000819050919050565b610fbe81610fab565b82525050565b600067ffffffffffffffff82169050919050565b610fe181610fc4565b82525050565b600061ffff82169050919050565b610ffe81610fe7565b82525050565b600063ffffffff82169050919050565b61101d81611004565b82525050565b600060a0820190506110386000830188610fb5565b6110456020830187610fd8565b6110526040830186610ff5565b61105f6060830185611014565b61106c6080830184611014565b9695505050505050565b60008151905061108581610a39565b92915050565b6000602082840312156110a1576110a0610a2f565b5b60006110af84828501611076565b91505092915050565b7f4e487b7100000000000000000000000000000000000000000000000000000000600052603260045260246000fd5b7f4e487b7100000000000000000000000000000000000000000000000000000000600052601160045260246000fd5b6000611121826109f1565b915061112c836109f1565b92508282101561113f5761113e6110e7565b5b828203905092915050565b7f4e487b7100000000000000000000000000000000000000000000000000000000600052601260045260246000fd5b6000611184826109f1565b915061118f836109f1565b92508261119f5761119e61114a565b5b828206905092915050565b600081905092915050565b50565b60006111c56000836111aa565b91506111d0826111b5565b600082019050919050565b60006111e6826111b8565b915081905091905056fea264697066735822122070805eb1dc480ea796f299406fab931877f17777b40efc6b374d3641aee8365764736f6c63430008080033","opcodes":"PUSH2 0x140 PUSH1 0x40 MSTORE CALLVALUE DUP1 ISZERO PUSH3 0x12 JUMPI PUSH1 0x0 DUP1 REVERT JUMPDEST POP PUSH1 0x40 MLOAD PUSH3 0x1623 CODESIZE SUB DUP1 PUSH3 0x1623 DUP4 CODECOPY DUP2 DUP2 ADD PUSH1 0x40 MSTORE DUP2 ADD SWAP1 PUSH3 0x38 SWAP2 SWAP1 PUSH3 0x2CB JUMP JUMPDEST DUP6 DUP1 PUSH20 0xFFFFFFFFFFFFFFFFFFFFFFFFFFFFFFFFFFFFFFFF AND PUSH1 0x80 DUP2 PUSH20 0xFFFFFFFFFFFFFFFFFFFFFFFFFFFFFFFFFFFFFFFF AND PUSH1 0x60 SHL DUP2 MSTORE POP POP POP DUP5 PUSH1 0xA0 DUP2 DUP2 MSTORE POP POP PUSH1 0x1 PUSH1 0x0 SWAP1 SLOAD SWAP1 PUSH2 0x100 EXP SWAP1 DIV PUSH20 0xFFFFFFFFFFFFFFFFFFFFFFFFFFFFFFFFFFFFFFFF AND PUSH1 0x1 PUSH1 0x0 PUSH2 0x100 EXP DUP2 SLOAD DUP2 PUSH20 0xFFFFFFFFFFFFFFFFFFFFFFFFFFFFFFFFFFFFFFFF MUL NOT AND SWAP1 DUP4 PUSH20 0xFFFFFFFFFFFFFFFFFFFFFFFFFFFFFFFFFFFFFFFF AND MUL OR SWAP1 SSTORE POP DUP4 PUSH1 0xC0 DUP2 DUP2 MSTORE POP POP DUP3 PUSH8 0xFFFFFFFFFFFFFFFF AND PUSH1 0xE0 DUP2 PUSH8 0xFFFFFFFFFFFFFFFF AND PUSH1 0xC0 SHL DUP2 MSTORE POP POP DUP2 PUSH4 0xFFFFFFFF AND PUSH2 0x100 DUP2 PUSH4 0xFFFFFFFF AND PUSH1 0xE0 SHL DUP2 MSTORE POP POP PUSH1 0x0 PUSH1 0x2 PUSH1 0x14 PUSH2 0x100 EXP DUP2 SLOAD DUP2 PUSH1 0xFF MUL NOT AND SWAP1 DUP4 PUSH1 0x1 DUP2 GT ISZERO PUSH3 0x144 JUMPI PUSH3 0x143 PUSH3 0x367 JUMP JUMPDEST JUMPDEST MUL OR SWAP1 SSTORE POP TIMESTAMP PUSH1 0x3 DUP2 SWAP1 SSTORE POP DUP1 PUSH2 0x120 DUP2 DUP2 MSTORE POP POP POP POP POP POP POP POP PUSH3 0x396 JUMP JUMPDEST PUSH1 0x0 DUP1 REVERT JUMPDEST PUSH1 0x0 PUSH20 0xFFFFFFFFFFFFFFFFFFFFFFFFFFFFFFFFFFFFFFFF DUP3 AND SWAP1 POP SWAP2 SWAP1 POP JUMP JUMPDEST PUSH1 0x0 PUSH3 0x197 DUP3 PUSH3 0x16A JUMP JUMPDEST SWAP1 POP SWAP2 SWAP1 POP JUMP JUMPDEST PUSH3 0x1A9 DUP2 PUSH3 0x18A JUMP JUMPDEST DUP2 EQ PUSH3 0x1B5 JUMPI PUSH1 0x0 DUP1 REVERT JUMPDEST POP JUMP JUMPDEST PUSH1 0x0 DUP2 MLOAD SWAP1 POP PUSH3 0x1C9 DUP2 PUSH3 0x19E JUMP JUMPDEST SWAP3 SWAP2 POP POP JUMP JUMPDEST PUSH1 0x0 DUP2 SWAP1 POP SWAP2 SWAP1 POP JUMP JUMPDEST PUSH3 0x1E4 DUP2 PUSH3 0x1CF JUMP JUMPDEST DUP2 EQ PUSH3 0x1F0 JUMPI PUSH1 0x0 DUP1 REVERT JUMPDEST POP JUMP JUMPDEST PUSH1 0x0 DUP2 MLOAD SWAP1 POP PUSH3 0x204 DUP2 PUSH3 0x1D9 JUMP JUMPDEST SWAP3 SWAP2 POP POP JUMP JUMPDEST PUSH1 0x0 DUP2 SWAP1 POP SWAP2 SWAP1 POP JUMP JUMPDEST PUSH3 0x21F DUP2 PUSH3 0x20A JUMP JUMPDEST DUP2 EQ PUSH3 0x22B JUMPI PUSH1 0x0 DUP1 REVERT JUMPDEST POP JUMP JUMPDEST PUSH1 0x0 DUP2 MLOAD SWAP1 POP PUSH3 0x23F DUP2 PUSH3 0x214 JUMP JUMPDEST SWAP3 SWAP2 POP POP JUMP JUMPDEST PUSH1 0x0 PUSH8 0xFFFFFFFFFFFFFFFF DUP3 AND SWAP1 POP SWAP2 SWAP1 POP JUMP JUMPDEST PUSH3 0x264 DUP2 PUSH3 0x245 JUMP JUMPDEST DUP2 EQ PUSH3 0x270 JUMPI PUSH1 0x0 DUP1 REVERT JUMPDEST POP JUMP JUMPDEST PUSH1 0x0 DUP2 MLOAD SWAP1 POP PUSH3 0x284 DUP2 PUSH3 0x259 JUMP JUMPDEST SWAP3 SWAP2 POP POP JUMP JUMPDEST PUSH1 0x0 PUSH4 0xFFFFFFFF DUP3 AND SWAP1 POP SWAP2 SWAP1 POP JUMP JUMPDEST PUSH3 0x2A5 DUP2 PUSH3 0x28A JUMP JUMPDEST DUP2 EQ PUSH3 0x2B1 JUMPI PUSH1 0x0 DUP1 REVERT JUMPDEST POP JUMP JUMPDEST PUSH1 0x0 DUP2 MLOAD SWAP1 POP PUSH3 0x2C5 DUP2 PUSH3 0x29A JUMP JUMPDEST SWAP3 SWAP2 POP POP JUMP JUMPDEST PUSH1 0x0 DUP1 PUSH1 0x0 DUP1 PUSH1 0x0 DUP1 PUSH1 0xC0 DUP8 DUP10 SUB SLT ISZERO PUSH3 0x2EB JUMPI PUSH3 0x2EA PUSH3 0x165 JUMP JUMPDEST JUMPDEST PUSH1 0x0 PUSH3 0x2FB DUP10 DUP3 DUP11 ADD PUSH3 0x1B8 JUMP JUMPDEST SWAP7 POP POP PUSH1 0x20 PUSH3 0x30E DUP10 DUP3 DUP11 ADD PUSH3 0x1F3 JUMP JUMPDEST SWAP6 POP POP PUSH1 0x40 PUSH3 0x321 DUP10 DUP3 DUP11 ADD PUSH3 0x22E JUMP JUMPDEST SWAP5 POP POP PUSH1 0x60 PUSH3 0x334 DUP10 DUP3 DUP11 ADD PUSH3 0x273 JUMP JUMPDEST SWAP4 POP POP PUSH1 0x80 PUSH3 0x347 DUP10 DUP3 DUP11 ADD PUSH3 0x2B4 JUMP JUMPDEST SWAP3 POP POP PUSH1 0xA0 PUSH3 0x35A DUP10 DUP3 DUP11 ADD PUSH3 0x1F3 JUMP JUMPDEST SWAP2 POP POP SWAP3 SWAP6 POP SWAP3 SWAP6 POP SWAP3 SWAP6 JUMP JUMPDEST PUSH32 0x4E487B7100000000000000000000000000000000000000000000000000000000 PUSH1 0x0 MSTORE PUSH1 0x21 PUSH1 0x4 MSTORE PUSH1 0x24 PUSH1 0x0 REVERT JUMPDEST PUSH1 0x80 MLOAD PUSH1 0x60 SHR PUSH1 0xA0 MLOAD PUSH1 0xC0 MLOAD PUSH1 0xE0 MLOAD PUSH1 0xC0 SHR PUSH2 0x100 MLOAD PUSH1 0xE0 SHR PUSH2 0x120 MLOAD PUSH2 0x1226 PUSH3 0x3FD PUSH1 0x0 CODECOPY PUSH1 0x0 PUSH2 0x6AF ADD MSTORE PUSH1 0x0 PUSH2 0x533 ADD MSTORE PUSH1 0x0 PUSH2 0x510 ADD MSTORE PUSH1 0x0 PUSH2 0x4EF ADD MSTORE PUSH1 0x0 DUP2 DUP2 PUSH2 0x1A6 ADD MSTORE PUSH2 0x28C ADD MSTORE PUSH1 0x0 DUP2 DUP2 PUSH2 0x1CC ADD MSTORE PUSH2 0x220 ADD MSTORE PUSH2 0x1226 PUSH1 0x0 RETURN INVALID PUSH1 0x80 PUSH1 0x40 MSTORE PUSH1 0x4 CALLDATASIZE LT PUSH2 0x70 JUMPI PUSH1 0x0 CALLDATALOAD PUSH1 0xE0 SHR DUP1 PUSH4 0x4585E33B GT PUSH2 0x4E JUMPI DUP1 PUSH4 0x4585E33B EQ PUSH2 0xD3 JUMPI DUP1 PUSH4 0x460E2049 EQ PUSH2 0xFC JUMPI DUP1 PUSH4 0x473F1DDC EQ PUSH2 0x139 JUMPI DUP1 PUSH4 0x6E04FF0D EQ PUSH2 0x164 JUMPI PUSH2 0x70 JUMP JUMPDEST DUP1 PUSH4 0x9BC33A7 EQ PUSH2 0x75 JUMPI DUP1 PUSH4 0x1FE543E3 EQ PUSH2 0xA0 JUMPI DUP1 PUSH4 0x2CFCC539 EQ PUSH2 0xC9 JUMPI JUMPDEST PUSH1 0x0 DUP1 REVERT JUMPDEST CALLVALUE DUP1 ISZERO PUSH2 0x81 JUMPI PUSH1 0x0 DUP1 REVERT JUMPDEST POP PUSH2 0x8A PUSH2 0x1A2 JUMP JUMPDEST PUSH1 0x40 MLOAD PUSH2 0x97 SWAP2 SWAP1 PUSH2 0xA0A JUMP JUMPDEST PUSH1 0x40 MLOAD DUP1 SWAP2 SUB SWAP1 RETURN JUMPDEST CALLVALUE DUP1 ISZERO PUSH2 0xAC JUMPI PUSH1 0x0 DUP1 REVERT JUMPDEST POP PUSH2 0xC7 PUSH1 0x4 DUP1 CALLDATASIZE SUB DUP2 ADD SWAP1 PUSH2 0xC2 SWAP2 SWAP1 PUSH2 0xBBE JUMP JUMPDEST PUSH2 0x1CA JUMP JUMPDEST STOP JUMPDEST PUSH2 0xD1 PUSH2 0x28A JUMP JUMPDEST STOP JUMPDEST CALLVALUE DUP1 ISZERO PUSH2 0xDF JUMPI PUSH1 0x0 DUP1 REVERT JUMPDEST POP PUSH2 0xFA PUSH1 0x4 DUP1 CALLDATASIZE SUB DUP2 ADD SWAP1 PUSH2 0xF5 SWAP2 SWAP1 PUSH2 0xC75 JUMP JUMPDEST PUSH2 0x3F9 JUMP JUMPDEST STOP JUMPDEST CALLVALUE DUP1 ISZERO PUSH2 0x108 JUMPI PUSH1 0x0 DUP1 REVERT JUMPDEST POP PUSH2 0x123 PUSH1 0x4 DUP1 CALLDATASIZE SUB DUP2 ADD SWAP1 PUSH2 0x11E SWAP2 SWAP1 PUSH2 0xCC2 JUMP JUMPDEST PUSH2 0x5FB JUMP JUMPDEST PUSH1 0x40 MLOAD PUSH2 0x130 SWAP2 SWAP1 PUSH2 0xD30 JUMP JUMPDEST PUSH1 0x40 MLOAD DUP1 SWAP2 SUB SWAP1 RETURN JUMPDEST CALLVALUE DUP1 ISZERO PUSH2 0x145 JUMPI PUSH1 0x0 DUP1 REVERT JUMPDEST POP PUSH2 0x14E PUSH2 0x642 JUMP JUMPDEST PUSH1 0x40 MLOAD PUSH2 0x15B SWAP2 SWAP1 PUSH2 0xD30 JUMP JUMPDEST PUSH1 0x40 MLOAD DUP1 SWAP2 SUB SWAP1 RETURN JUMPDEST CALLVALUE DUP1 ISZERO PUSH2 0x170 JUMPI PUSH1 0x0 DUP1 REVERT JUMPDEST POP PUSH2 0x18B PUSH1 0x4 DUP1 CALLDATASIZE SUB DUP2 ADD SWAP1 PUSH2 0x186 SWAP2 SWAP1 PUSH2 0xE00 JUMP JUMPDEST PUSH2 0x66C JUMP JUMPDEST PUSH1 0x40 MLOAD PUSH2 0x199 SWAP3 SWAP2 SWAP1 PUSH2 0xEEC JUMP JUMPDEST PUSH1 0x40 MLOAD DUP1 SWAP2 SUB SWAP1 RETURN JUMPDEST PUSH1 0x0 PUSH32 0x0 SWAP1 POP SWAP1 JUMP JUMPDEST PUSH32 0x0 PUSH20 0xFFFFFFFFFFFFFFFFFFFFFFFFFFFFFFFFFFFFFFFF AND CALLER PUSH20 0xFFFFFFFFFFFFFFFFFFFFFFFFFFFFFFFFFFFFFFFF AND EQ PUSH2 0x27C JUMPI CALLER PUSH32 0x0 PUSH1 0x40 MLOAD PUSH32 0x1CF993F400000000000000000000000000000000000000000000000000000000 DUP2 MSTORE PUSH1 0x4 ADD PUSH2 0x273 SWAP3 SWAP2 SWAP1 PUSH2 0xF1C JUMP JUMPDEST PUSH1 0x40 MLOAD DUP1 SWAP2 SUB SWAP1 REVERT JUMPDEST PUSH2 0x286 DUP3 DUP3 PUSH2 0x719 JUMP JUMPDEST POP POP JUMP JUMPDEST PUSH32 0x0 CALLVALUE LT ISZERO PUSH2 0x2E4 JUMPI PUSH1 0x40 MLOAD PUSH32 0xBD4E069500000000000000000000000000000000000000000000000000000000 DUP2 MSTORE PUSH1 0x4 ADD PUSH1 0x40 MLOAD DUP1 SWAP2 SUB SWAP1 REVERT JUMPDEST PUSH1 0x0 PUSH1 0x1 DUP2 GT ISZERO PUSH2 0x2F8 JUMPI PUSH2 0x2F7 PUSH2 0xF45 JUMP JUMPDEST JUMPDEST PUSH1 0x2 PUSH1 0x14 SWAP1 SLOAD SWAP1 PUSH2 0x100 EXP SWAP1 DIV PUSH1 0xFF AND PUSH1 0x1 DUP2 GT ISZERO PUSH2 0x31A JUMPI PUSH2 0x319 PUSH2 0xF45 JUMP JUMPDEST JUMPDEST EQ PUSH2 0x351 JUMPI PUSH1 0x40 MLOAD PUSH32 0x1425571C00000000000000000000000000000000000000000000000000000000 DUP2 MSTORE PUSH1 0x4 ADD PUSH1 0x40 MLOAD DUP1 SWAP2 SUB SWAP1 REVERT JUMPDEST PUSH1 0x0 CALLER SWAP1 DUP1 PUSH1 0x1 DUP2 SLOAD ADD DUP1 DUP3 SSTORE DUP1 SWAP2 POP POP PUSH1 0x1 SWAP1 SUB SWAP1 PUSH1 0x0 MSTORE PUSH1 0x20 PUSH1 0x0 KECCAK256 ADD PUSH1 0x0 SWAP1 SWAP2 SWAP1 SWAP2 SWAP1 SWAP2 PUSH2 0x100 EXP DUP2 SLOAD DUP2 PUSH20 0xFFFFFFFFFFFFFFFFFFFFFFFFFFFFFFFFFFFFFFFF MUL NOT AND SWAP1 DUP4 PUSH20 0xFFFFFFFFFFFFFFFFFFFFFFFFFFFFFFFFFFFFFFFF AND MUL OR SWAP1 SSTORE POP CALLER PUSH20 0xFFFFFFFFFFFFFFFFFFFFFFFFFFFFFFFFFFFFFFFF AND PUSH32 0x805E1D667BDDB8A95F0F09880CF94F403FB596CE79928D9F29B74203BA284D4 PUSH1 0x40 MLOAD PUSH1 0x40 MLOAD DUP1 SWAP2 SUB SWAP1 LOG2 JUMP JUMPDEST PUSH1 0x0 PUSH2 0x413 PUSH1 0x40 MLOAD DUP1 PUSH1 0x20 ADD PUSH1 0x40 MSTORE DUP1 PUSH1 0x0 DUP2 MSTORE POP PUSH2 0x66C JUMP JUMPDEST POP SWAP1 POP DUP1 PUSH2 0x482 JUMPI SELFBALANCE PUSH1 0x0 DUP1 SLOAD SWAP1 POP PUSH1 0x2 PUSH1 0x14 SWAP1 SLOAD SWAP1 PUSH2 0x100 EXP SWAP1 DIV PUSH1 0xFF AND PUSH1 0x1 DUP2 GT ISZERO PUSH2 0x444 JUMPI PUSH2 0x443 PUSH2 0xF45 JUMP JUMPDEST JUMPDEST PUSH1 0x40 MLOAD PUSH32 0x584327AA00000000000000000000000000000000000000000000000000000000 DUP2 MSTORE PUSH1 0x4 ADD PUSH2 0x479 SWAP4 SWAP3 SWAP2 SWAP1 PUSH2 0xF74 JUMP JUMPDEST PUSH1 0x40 MLOAD DUP1 SWAP2 SUB SWAP1 REVERT JUMPDEST PUSH1 0x1 PUSH1 0x2 PUSH1 0x14 PUSH2 0x100 EXP DUP2 SLOAD DUP2 PUSH1 0xFF MUL NOT AND SWAP1 DUP4 PUSH1 0x1 DUP2 GT ISZERO PUSH2 0x4A8 JUMPI PUSH2 0x4A7 PUSH2 0xF45 JUMP JUMPDEST JUMPDEST MUL OR SWAP1 SSTORE POP PUSH1 0x0 PUSH1 0x1 PUSH1 0x0 SWAP1 SLOAD SWAP1 PUSH2 0x100 EXP SWAP1 DIV PUSH20 0xFFFFFFFFFFFFFFFFFFFFFFFFFFFFFFFFFFFFFFFF AND PUSH20 0xFFFFFFFFFFFFFFFFFFFFFFFFFFFFFFFFFFFFFFFF AND PUSH4 0x5D3B1D30 PUSH32 0x0 PUSH32 0x0 PUSH1 0x3 PUSH32 0x0 PUSH1 0x1 PUSH1 0x40 MLOAD DUP7 PUSH4 0xFFFFFFFF AND PUSH1 0xE0 SHL DUP2 MSTORE PUSH1 0x4 ADD PUSH2 0x574 SWAP6 SWAP5 SWAP4 SWAP3 SWAP2 SWAP1 PUSH2 0x1023 JUMP JUMPDEST PUSH1 0x20 PUSH1 0x40 MLOAD DUP1 DUP4 SUB DUP2 PUSH1 0x0 DUP8 DUP1 EXTCODESIZE ISZERO DUP1 ISZERO PUSH2 0x58E JUMPI PUSH1 0x0 DUP1 REVERT JUMPDEST POP GAS CALL ISZERO DUP1 ISZERO PUSH2 0x5A2 JUMPI RETURNDATASIZE PUSH1 0x0 DUP1 RETURNDATACOPY RETURNDATASIZE PUSH1 0x0 REVERT JUMPDEST POP POP POP POP PUSH1 0x40 MLOAD RETURNDATASIZE PUSH1 0x1F NOT PUSH1 0x1F DUP3 ADD AND DUP3 ADD DUP1 PUSH1 0x40 MSTORE POP DUP2 ADD SWAP1 PUSH2 0x5C6 SWAP2 SWAP1 PUSH2 0x108B JUMP JUMPDEST SWAP1 POP DUP1 PUSH32 0xCD6E45C8998311CAB7E9D4385596CAC867E20A0587194B954FA3A731C93CE78B PUSH1 0x40 MLOAD PUSH1 0x40 MLOAD DUP1 SWAP2 SUB SWAP1 LOG2 POP POP POP POP JUMP JUMPDEST PUSH1 0x0 DUP1 DUP3 DUP2 SLOAD DUP2 LT PUSH2 0x610 JUMPI PUSH2 0x60F PUSH2 0x10B8 JUMP JUMPDEST JUMPDEST SWAP1 PUSH1 0x0 MSTORE PUSH1 0x20 PUSH1 0x0 KECCAK256 ADD PUSH1 0x0 SWAP1 SLOAD SWAP1 PUSH2 0x100 EXP SWAP1 DIV PUSH20 0xFFFFFFFFFFFFFFFFFFFFFFFFFFFFFFFFFFFFFFFF AND SWAP1 POP SWAP2 SWAP1 POP JUMP JUMPDEST PUSH1 0x0 PUSH1 0x2 PUSH1 0x0 SWAP1 SLOAD SWAP1 PUSH2 0x100 EXP SWAP1 DIV PUSH20 0xFFFFFFFFFFFFFFFFFFFFFFFFFFFFFFFFFFFFFFFF AND SWAP1 POP SWAP1 JUMP JUMPDEST PUSH1 0x0 PUSH1 0x60 PUSH1 0x0 PUSH1 0x2 PUSH1 0x14 SWAP1 SLOAD SWAP1 PUSH2 0x100 EXP SWAP1 DIV PUSH1 0xFF AND PUSH1 0x1 DUP2 GT ISZERO PUSH2 0x694 JUMPI PUSH2 0x693 PUSH2 0xF45 JUMP JUMPDEST JUMPDEST PUSH1 0x0 PUSH1 0x1 DUP2 GT ISZERO PUSH2 0x6A8 JUMPI PUSH2 0x6A7 PUSH2 0xF45 JUMP JUMPDEST JUMPDEST EQ SWAP1 POP PUSH1 0x0 PUSH32 0x0 PUSH1 0x3 SLOAD TIMESTAMP PUSH2 0x6DC SWAP2 SWAP1 PUSH2 0x1116 JUMP JUMPDEST GT SWAP1 POP PUSH1 0x0 DUP1 PUSH1 0x0 DUP1 SLOAD SWAP1 POP GT SWAP1 POP PUSH1 0x0 DUP1 SELFBALANCE GT SWAP1 POP DUP4 DUP1 ISZERO PUSH2 0x6FC JUMPI POP DUP3 JUMPDEST DUP1 ISZERO PUSH2 0x705 JUMPI POP DUP2 JUMPDEST DUP1 ISZERO PUSH2 0x70E JUMPI POP DUP1 JUMPDEST SWAP6 POP POP POP POP POP SWAP2 POP SWAP2 JUMP JUMPDEST PUSH1 0x0 DUP1 DUP1 SLOAD SWAP1 POP DUP3 PUSH1 0x0 DUP2 MLOAD DUP2 LT PUSH2 0x734 JUMPI PUSH2 0x733 PUSH2 0x10B8 JUMP JUMPDEST JUMPDEST PUSH1 0x20 MUL PUSH1 0x20 ADD ADD MLOAD PUSH2 0x746 SWAP2 SWAP1 PUSH2 0x1179 JUMP JUMPDEST SWAP1 POP PUSH1 0x0 DUP1 DUP3 DUP2 SLOAD DUP2 LT PUSH2 0x75D JUMPI PUSH2 0x75C PUSH2 0x10B8 JUMP JUMPDEST JUMPDEST SWAP1 PUSH1 0x0 MSTORE PUSH1 0x20 PUSH1 0x0 KECCAK256 ADD PUSH1 0x0 SWAP1 SLOAD SWAP1 PUSH2 0x100 EXP SWAP1 DIV PUSH20 0xFFFFFFFFFFFFFFFFFFFFFFFFFFFFFFFFFFFFFFFF AND SWAP1 POP DUP1 PUSH1 0x2 PUSH1 0x0 PUSH2 0x100 EXP DUP2 SLOAD DUP2 PUSH20 0xFFFFFFFFFFFFFFFFFFFFFFFFFFFFFFFFFFFFFFFF MUL NOT AND SWAP1 DUP4 PUSH20 0xFFFFFFFFFFFFFFFFFFFFFFFFFFFFFFFFFFFFFFFF AND MUL OR SWAP1 SSTORE POP PUSH1 0x0 PUSH1 0x2 PUSH1 0x14 PUSH2 0x100 EXP DUP2 SLOAD DUP2 PUSH1 0xFF MUL NOT AND SWAP1 DUP4 PUSH1 0x1 DUP2 GT ISZERO PUSH2 0x7F1 JUMPI PUSH2 0x7F0 PUSH2 0xF45 JUMP JUMPDEST JUMPDEST MUL OR SWAP1 SSTORE POP PUSH1 0x0 PUSH8 0xFFFFFFFFFFFFFFFF DUP2 GT ISZERO PUSH2 0x811 JUMPI PUSH2 0x810 PUSH2 0xA7B JUMP JUMPDEST JUMPDEST PUSH1 0x40 MLOAD SWAP1 DUP1 DUP3 MSTORE DUP1 PUSH1 0x20 MUL PUSH1 0x20 ADD DUP3 ADD PUSH1 0x40 MSTORE DUP1 ISZERO PUSH2 0x83F JUMPI DUP2 PUSH1 0x20 ADD PUSH1 0x20 DUP3 MUL DUP1 CALLDATASIZE DUP4 CALLDATACOPY DUP1 DUP3 ADD SWAP2 POP POP SWAP1 POP JUMPDEST POP PUSH1 0x0 SWAP1 DUP1 MLOAD SWAP1 PUSH1 0x20 ADD SWAP1 PUSH2 0x855 SWAP3 SWAP2 SWAP1 PUSH2 0x94A JUMP JUMPDEST POP TIMESTAMP PUSH1 0x3 DUP2 SWAP1 SSTORE POP PUSH1 0x0 DUP2 PUSH20 0xFFFFFFFFFFFFFFFFFFFFFFFFFFFFFFFFFFFFFFFF AND SELFBALANCE PUSH1 0x40 MLOAD PUSH2 0x883 SWAP1 PUSH2 0x11DB JUMP JUMPDEST PUSH1 0x0 PUSH1 0x40 MLOAD DUP1 DUP4 SUB DUP2 DUP6 DUP8 GAS CALL SWAP3 POP POP POP RETURNDATASIZE DUP1 PUSH1 0x0 DUP2 EQ PUSH2 0x8C0 JUMPI PUSH1 0x40 MLOAD SWAP2 POP PUSH1 0x1F NOT PUSH1 0x3F RETURNDATASIZE ADD AND DUP3 ADD PUSH1 0x40 MSTORE RETURNDATASIZE DUP3 MSTORE RETURNDATASIZE PUSH1 0x0 PUSH1 0x20 DUP5 ADD RETURNDATACOPY PUSH2 0x8C5 JUMP JUMPDEST PUSH1 0x60 SWAP2 POP JUMPDEST POP POP SWAP1 POP DUP1 PUSH2 0x900 JUMPI PUSH1 0x40 MLOAD PUSH32 0xA1D04B3900000000000000000000000000000000000000000000000000000000 DUP2 MSTORE PUSH1 0x4 ADD PUSH1 0x40 MLOAD DUP1 SWAP2 SUB SWAP1 REVERT JUMPDEST DUP2 PUSH20 0xFFFFFFFFFFFFFFFFFFFFFFFFFFFFFFFFFFFFFFFF AND PUSH32 0x5B690EC4A06FE979403046EAEEA5B3CE38524683C3001F662C8B5A829632F7DF PUSH1 0x40 MLOAD PUSH1 0x40 MLOAD DUP1 SWAP2 SUB SWAP1 LOG2 POP POP POP POP POP JUMP JUMPDEST DUP3 DUP1 SLOAD DUP3 DUP3 SSTORE SWAP1 PUSH1 0x0 MSTORE PUSH1 0x20 PUSH1 0x0 KECCAK256 SWAP1 DUP2 ADD SWAP3 DUP3 ISZERO PUSH2 0x9C3 JUMPI SWAP2 PUSH1 0x20 MUL DUP3 ADD JUMPDEST DUP3 DUP2 GT ISZERO PUSH2 0x9C2 JUMPI DUP3 MLOAD DUP3 PUSH1 0x0 PUSH2 0x100 EXP DUP2 SLOAD DUP2 PUSH20 0xFFFFFFFFFFFFFFFFFFFFFFFFFFFFFFFFFFFFFFFF MUL NOT AND SWAP1 DUP4 PUSH20 0xFFFFFFFFFFFFFFFFFFFFFFFFFFFFFFFFFFFFFFFF AND MUL OR SWAP1 SSTORE POP SWAP2 PUSH1 0x20 ADD SWAP2 SWAP1 PUSH1 0x1 ADD SWAP1 PUSH2 0x96A JUMP JUMPDEST JUMPDEST POP SWAP1 POP PUSH2 0x9D0 SWAP2 SWAP1 PUSH2 0x9D4 JUMP JUMPDEST POP SWAP1 JUMP JUMPDEST JUMPDEST DUP1 DUP3 GT ISZERO PUSH2 0x9ED JUMPI PUSH1 0x0 DUP2 PUSH1 0x0 SWAP1 SSTORE POP PUSH1 0x1 ADD PUSH2 0x9D5 JUMP JUMPDEST POP SWAP1 JUMP JUMPDEST PUSH1 0x0 DUP2 SWAP1 POP SWAP2 SWAP1 POP JUMP JUMPDEST PUSH2 0xA04 DUP2 PUSH2 0x9F1 JUMP JUMPDEST DUP3 MSTORE POP POP JUMP JUMPDEST PUSH1 0x0 PUSH1 0x20 DUP3 ADD SWAP1 POP PUSH2 0xA1F PUSH1 0x0 DUP4 ADD DUP5 PUSH2 0x9FB JUMP JUMPDEST SWAP3 SWAP2 POP POP JUMP JUMPDEST PUSH1 0x0 PUSH1 0x40 MLOAD SWAP1 POP SWAP1 JUMP JUMPDEST PUSH1 0x0 DUP1 REVERT JUMPDEST PUSH1 0x0 DUP1 REVERT JUMPDEST PUSH2 0xA42 DUP2 PUSH2 0x9F1 JUMP JUMPDEST DUP2 EQ PUSH2 0xA4D JUMPI PUSH1 0x0 DUP1 REVERT JUMPDEST POP JUMP JUMPDEST PUSH1 0x0 DUP2 CALLDATALOAD SWAP1 POP PUSH2 0xA5F DUP2 PUSH2 0xA39 JUMP JUMPDEST SWAP3 SWAP2 POP POP JUMP JUMPDEST PUSH1 0x0 DUP1 REVERT JUMPDEST PUSH1 0x0 PUSH1 0x1F NOT PUSH1 0x1F DUP4 ADD AND SWAP1 POP SWAP2 SWAP1 POP JUMP JUMPDEST PUSH32 0x4E487B7100000000000000000000000000000000000000000000000000000000 PUSH1 0x0 MSTORE PUSH1 0x41 PUSH1 0x4 MSTORE PUSH1 0x24 PUSH1 0x0 REVERT JUMPDEST PUSH2 0xAB3 DUP3 PUSH2 0xA6A JUMP JUMPDEST DUP2 ADD DUP2 DUP2 LT PUSH8 0xFFFFFFFFFFFFFFFF DUP3 GT OR ISZERO PUSH2 0xAD2 JUMPI PUSH2 0xAD1 PUSH2 0xA7B JUMP JUMPDEST JUMPDEST DUP1 PUSH1 0x40 MSTORE POP POP POP JUMP JUMPDEST PUSH1 0x0 PUSH2 0xAE5 PUSH2 0xA25 JUMP JUMPDEST SWAP1 POP PUSH2 0xAF1 DUP3 DUP3 PUSH2 0xAAA JUMP JUMPDEST SWAP2 SWAP1 POP JUMP JUMPDEST PUSH1 0x0 PUSH8 0xFFFFFFFFFFFFFFFF DUP3 GT ISZERO PUSH2 0xB11 JUMPI PUSH2 0xB10 PUSH2 0xA7B JUMP JUMPDEST JUMPDEST PUSH1 0x20 DUP3 MUL SWAP1 POP PUSH1 0x20 DUP2 ADD SWAP1 POP SWAP2 SWAP1 POP JUMP JUMPDEST PUSH1 0x0 DUP1 REVERT JUMPDEST PUSH1 0x0 PUSH2 0xB3A PUSH2 0xB35 DUP5 PUSH2 0xAF6 JUMP JUMPDEST PUSH2 0xADB JUMP JUMPDEST SWAP1 POP DUP1 DUP4 DUP3 MSTORE PUSH1 0x20 DUP3 ADD SWAP1 POP PUSH1 0x20 DUP5 MUL DUP4 ADD DUP6 DUP2 GT ISZERO PUSH2 0xB5D JUMPI PUSH2 0xB5C PUSH2 0xB22 JUMP JUMPDEST JUMPDEST DUP4 JUMPDEST DUP2 DUP2 LT ISZERO PUSH2 0xB86 JUMPI DUP1 PUSH2 0xB72 DUP9 DUP3 PUSH2 0xA50 JUMP JUMPDEST DUP5 MSTORE PUSH1 0x20 DUP5 ADD SWAP4 POP POP PUSH1 0x20 DUP2 ADD SWAP1 POP PUSH2 0xB5F JUMP JUMPDEST POP POP POP SWAP4 SWAP3 POP POP POP JUMP JUMPDEST PUSH1 0x0 DUP3 PUSH1 0x1F DUP4 ADD SLT PUSH2 0xBA5 JUMPI PUSH2 0xBA4 PUSH2 0xA65 JUMP JUMPDEST JUMPDEST DUP2 CALLDATALOAD PUSH2 0xBB5 DUP5 DUP3 PUSH1 0x20 DUP7 ADD PUSH2 0xB27 JUMP JUMPDEST SWAP2 POP POP SWAP3 SWAP2 POP POP JUMP JUMPDEST PUSH1 0x0 DUP1 PUSH1 0x40 DUP4 DUP6 SUB SLT ISZERO PUSH2 0xBD5 JUMPI PUSH2 0xBD4 PUSH2 0xA2F JUMP JUMPDEST JUMPDEST PUSH1 0x0 PUSH2 0xBE3 DUP6 DUP3 DUP7 ADD PUSH2 0xA50 JUMP JUMPDEST SWAP3 POP POP PUSH1 0x20 DUP4 ADD CALLDATALOAD PUSH8 0xFFFFFFFFFFFFFFFF DUP2 GT ISZERO PUSH2 0xC04 JUMPI PUSH2 0xC03 PUSH2 0xA34 JUMP JUMPDEST JUMPDEST PUSH2 0xC10 DUP6 DUP3 DUP7 ADD PUSH2 0xB90 JUMP JUMPDEST SWAP2 POP POP SWAP3 POP SWAP3 SWAP1 POP JUMP JUMPDEST PUSH1 0x0 DUP1 REVERT JUMPDEST PUSH1 0x0 DUP1 DUP4 PUSH1 0x1F DUP5 ADD SLT PUSH2 0xC35 JUMPI PUSH2 0xC34 PUSH2 0xA65 JUMP JUMPDEST JUMPDEST DUP3 CALLDATALOAD SWAP1 POP PUSH8 0xFFFFFFFFFFFFFFFF DUP2 GT ISZERO PUSH2 0xC52 JUMPI PUSH2 0xC51 PUSH2 0xC1A JUMP JUMPDEST JUMPDEST PUSH1 0x20 DUP4 ADD SWAP2 POP DUP4 PUSH1 0x1 DUP3 MUL DUP4 ADD GT ISZERO PUSH2 0xC6E JUMPI PUSH2 0xC6D PUSH2 0xB22 JUMP JUMPDEST JUMPDEST SWAP3 POP SWAP3 SWAP1 POP JUMP JUMPDEST PUSH1 0x0 DUP1 PUSH1 0x20 DUP4 DUP6 SUB SLT ISZERO PUSH2 0xC8C JUMPI PUSH2 0xC8B PUSH2 0xA2F JUMP JUMPDEST JUMPDEST PUSH1 0x0 DUP4 ADD CALLDATALOAD PUSH8 0xFFFFFFFFFFFFFFFF DUP2 GT ISZERO PUSH2 0xCAA JUMPI PUSH2 0xCA9 PUSH2 0xA34 JUMP JUMPDEST JUMPDEST PUSH2 0xCB6 DUP6 DUP3 DUP7 ADD PUSH2 0xC1F JUMP JUMPDEST SWAP3 POP SWAP3 POP POP SWAP3 POP SWAP3 SWAP1 POP JUMP JUMPDEST PUSH1 0x0 PUSH1 0x20 DUP3 DUP5 SUB SLT ISZERO PUSH2 0xCD8 JUMPI PUSH2 0xCD7 PUSH2 0xA2F JUMP JUMPDEST JUMPDEST PUSH1 0x0 PUSH2 0xCE6 DUP5 DUP3 DUP6 ADD PUSH2 0xA50 JUMP JUMPDEST SWAP2 POP POP SWAP3 SWAP2 POP POP JUMP JUMPDEST PUSH1 0x0 PUSH20 0xFFFFFFFFFFFFFFFFFFFFFFFFFFFFFFFFFFFFFFFF DUP3 AND SWAP1 POP SWAP2 SWAP1 POP JUMP JUMPDEST PUSH1 0x0 PUSH2 0xD1A DUP3 PUSH2 0xCEF JUMP JUMPDEST SWAP1 POP SWAP2 SWAP1 POP JUMP JUMPDEST PUSH2 0xD2A DUP2 PUSH2 0xD0F JUMP JUMPDEST DUP3 MSTORE POP POP JUMP JUMPDEST PUSH1 0x0 PUSH1 0x20 DUP3 ADD SWAP1 POP PUSH2 0xD45 PUSH1 0x0 DUP4 ADD DUP5 PUSH2 0xD21 JUMP JUMPDEST SWAP3 SWAP2 POP POP JUMP JUMPDEST PUSH1 0x0 DUP1 REVERT JUMPDEST PUSH1 0x0 PUSH8 0xFFFFFFFFFFFFFFFF DUP3 GT ISZERO PUSH2 0xD6B JUMPI PUSH2 0xD6A PUSH2 0xA7B JUMP JUMPDEST JUMPDEST PUSH2 0xD74 DUP3 PUSH2 0xA6A JUMP JUMPDEST SWAP1 POP PUSH1 0x20 DUP2 ADD SWAP1 POP SWAP2 SWAP1 POP JUMP JUMPDEST DUP3 DUP2 DUP4 CALLDATACOPY PUSH1 0x0 DUP4 DUP4 ADD MSTORE POP POP POP JUMP JUMPDEST PUSH1 0x0 PUSH2 0xDA3 PUSH2 0xD9E DUP5 PUSH2 0xD50 JUMP JUMPDEST PUSH2 0xADB JUMP JUMPDEST SWAP1 POP DUP3 DUP2 MSTORE PUSH1 0x20 DUP2 ADD DUP5 DUP5 DUP5 ADD GT ISZERO PUSH2 0xDBF JUMPI PUSH2 0xDBE PUSH2 0xD4B JUMP JUMPDEST JUMPDEST PUSH2 0xDCA DUP5 DUP3 DUP6 PUSH2 0xD81 JUMP JUMPDEST POP SWAP4 SWAP3 POP POP POP JUMP JUMPDEST PUSH1 0x0 DUP3 PUSH1 0x1F DUP4 ADD SLT PUSH2 0xDE7 JUMPI PUSH2 0xDE6 PUSH2 0xA65 JUMP JUMPDEST JUMPDEST DUP2 CALLDATALOAD PUSH2 0xDF7 DUP5 DUP3 PUSH1 0x20 DUP7 ADD PUSH2 0xD90 JUMP JUMPDEST SWAP2 POP POP SWAP3 SWAP2 POP POP JUMP JUMPDEST PUSH1 0x0 PUSH1 0x20 DUP3 DUP5 SUB SLT ISZERO PUSH2 0xE16 JUMPI PUSH2 0xE15 PUSH2 0xA2F JUMP JUMPDEST JUMPDEST PUSH1 0x0 DUP3 ADD CALLDATALOAD PUSH8 0xFFFFFFFFFFFFFFFF DUP2 GT ISZERO PUSH2 0xE34 JUMPI PUSH2 0xE33 PUSH2 0xA34 JUMP JUMPDEST JUMPDEST PUSH2 0xE40 DUP5 DUP3 DUP6 ADD PUSH2 0xDD2 JUMP JUMPDEST SWAP2 POP POP SWAP3 SWAP2 POP POP JUMP JUMPDEST PUSH1 0x0 DUP2 ISZERO ISZERO SWAP1 POP SWAP2 SWAP1 POP JUMP JUMPDEST PUSH2 0xE5E DUP2 PUSH2 0xE49 JUMP JUMPDEST DUP3 MSTORE POP POP JUMP JUMPDEST PUSH1 0x0 DUP2 MLOAD SWAP1 POP SWAP2 SWAP1 POP JUMP JUMPDEST PUSH1 0x0 DUP3 DUP3 MSTORE PUSH1 0x20 DUP3 ADD SWAP1 POP SWAP3 SWAP2 POP POP JUMP JUMPDEST PUSH1 0x0 JUMPDEST DUP4 DUP2 LT ISZERO PUSH2 0xE9E JUMPI DUP1 DUP3 ADD MLOAD DUP2 DUP5 ADD MSTORE PUSH1 0x20 DUP2 ADD SWAP1 POP PUSH2 0xE83 JUMP JUMPDEST DUP4 DUP2 GT ISZERO PUSH2 0xEAD JUMPI PUSH1 0x0 DUP5 DUP5 ADD MSTORE JUMPDEST POP POP POP POP JUMP JUMPDEST PUSH1 0x0 PUSH2 0xEBE DUP3 PUSH2 0xE64 JUMP JUMPDEST PUSH2 0xEC8 DUP2 DUP6 PUSH2 0xE6F JUMP JUMPDEST SWAP4 POP PUSH2 0xED8 DUP2 DUP6 PUSH1 0x20 DUP7 ADD PUSH2 0xE80 JUMP JUMPDEST PUSH2 0xEE1 DUP2 PUSH2 0xA6A JUMP JUMPDEST DUP5 ADD SWAP2 POP POP SWAP3 SWAP2 POP POP JUMP JUMPDEST PUSH1 0x0 PUSH1 0x40 DUP3 ADD SWAP1 POP PUSH2 0xF01 PUSH1 0x0 DUP4 ADD DUP6 PUSH2 0xE55 JUMP JUMPDEST DUP2 DUP2 SUB PUSH1 0x20 DUP4 ADD MSTORE PUSH2 0xF13 DUP2 DUP5 PUSH2 0xEB3 JUMP JUMPDEST SWAP1 POP SWAP4 SWAP3 POP POP POP JUMP JUMPDEST PUSH1 0x0 PUSH1 0x40 DUP3 ADD SWAP1 POP PUSH2 0xF31 PUSH1 0x0 DUP4 ADD DUP6 PUSH2 0xD21 JUMP JUMPDEST PUSH2 0xF3E PUSH1 0x20 DUP4 ADD DUP5 PUSH2 0xD21 JUMP JUMPDEST SWAP4 SWAP3 POP POP POP JUMP JUMPDEST PUSH32 0x4E487B7100000000000000000000000000000000000000000000000000000000 PUSH1 0x0 MSTORE PUSH1 0x21 PUSH1 0x4 MSTORE PUSH1 0x24 PUSH1 0x0 REVERT JUMPDEST PUSH1 0x0 PUSH1 0x60 DUP3 ADD SWAP1 POP PUSH2 0xF89 PUSH1 0x0 DUP4 ADD DUP7 PUSH2 0x9FB JUMP JUMPDEST PUSH2 0xF96 PUSH1 0x20 DUP4 ADD DUP6 PUSH2 0x9FB JUMP JUMPDEST PUSH2 0xFA3 PUSH1 0x40 DUP4 ADD DUP5 PUSH2 0x9FB JUMP JUMPDEST SWAP5 SWAP4 POP POP POP POP JUMP JUMPDEST PUSH1 0x0 DUP2 SWAP1 POP SWAP2 SWAP1 POP JUMP JUMPDEST PUSH2 0xFBE DUP2 PUSH2 0xFAB JUMP JUMPDEST DUP3 MSTORE POP POP JUMP JUMPDEST PUSH1 0x0 PUSH8 0xFFFFFFFFFFFFFFFF DUP3 AND SWAP1 POP SWAP2 SWAP1 POP JUMP JUMPDEST PUSH2 0xFE1 DUP2 PUSH2 0xFC4 JUMP JUMPDEST DUP3 MSTORE POP POP JUMP JUMPDEST PUSH1 0x0 PUSH2 0xFFFF DUP3 AND SWAP1 POP SWAP2 SWAP1 POP JUMP JUMPDEST PUSH2 0xFFE DUP2 PUSH2 0xFE7 JUMP JUMPDEST DUP3 MSTORE POP POP JUMP JUMPDEST PUSH1 0x0 PUSH4 0xFFFFFFFF DUP3 AND SWAP1 POP SWAP2 SWAP1 POP JUMP JUMPDEST PUSH2 0x101D DUP2 PUSH2 0x1004 JUMP JUMPDEST DUP3 MSTORE POP POP JUMP JUMPDEST PUSH1 0x0 PUSH1 0xA0 DUP3 ADD SWAP1 POP PUSH2 0x1038 PUSH1 0x0 DUP4 ADD DUP9 PUSH2 0xFB5 JUMP JUMPDEST PUSH2 0x1045 PUSH1 0x20 DUP4 ADD DUP8 PUSH2 0xFD8 JUMP JUMPDEST PUSH2 0x1052 PUSH1 0x40 DUP4 ADD DUP7 PUSH2 0xFF5 JUMP JUMPDEST PUSH2 0x105F PUSH1 0x60 DUP4 ADD DUP6 PUSH2 0x1014 JUMP JUMPDEST PUSH2 0x106C PUSH1 0x80 DUP4 ADD DUP5 PUSH2 0x1014 JUMP JUMPDEST SWAP7 SWAP6 POP POP POP POP POP POP JUMP JUMPDEST PUSH1 0x0 DUP2 MLOAD SWAP1 POP PUSH2 0x1085 DUP2 PUSH2 0xA39 JUMP JUMPDEST SWAP3 SWAP2 POP POP JUMP JUMPDEST PUSH1 0x0 PUSH1 0x20 DUP3 DUP5 SUB SLT ISZERO PUSH2 0x10A1 JUMPI PUSH2 0x10A0 PUSH2 0xA2F JUMP JUMPDEST JUMPDEST PUSH1 0x0 PUSH2 0x10AF DUP5 DUP3 DUP6 ADD PUSH2 0x1076 JUMP JUMPDEST SWAP2 POP POP SWAP3 SWAP2 POP POP JUMP JUMPDEST PUSH32 0x4E487B7100000000000000000000000000000000000000000000000000000000 PUSH1 0x0 MSTORE PUSH1 0x32 PUSH1 0x4 MSTORE PUSH1 0x24 PUSH1 0x0 REVERT JUMPDEST PUSH32 0x4E487B7100000000000000000000000000000000000000000000000000000000 PUSH1 0x0 MSTORE PUSH1 0x11 PUSH1 0x4 MSTORE PUSH1 0x24 PUSH1 0x0 REVERT JUMPDEST PUSH1 0x0 PUSH2 0x1121 DUP3 PUSH2 0x9F1 JUMP JUMPDEST SWAP2 POP PUSH2 0x112C DUP4 PUSH2 0x9F1 JUMP JUMPDEST SWAP3 POP DUP3 DUP3 LT ISZERO PUSH2 0x113F JUMPI PUSH2 0x113E PUSH2 0x10E7 JUMP JUMPDEST JUMPDEST DUP3 DUP3 SUB SWAP1 POP SWAP3 SWAP2 POP POP JUMP JUMPDEST PUSH32 0x4E487B7100000000000000000000000000000000000000000000000000000000 PUSH1 0x0 MSTORE PUSH1 0x12 PUSH1 0x4 MSTORE PUSH1 0x24 PUSH1 0x0 REVERT JUMPDEST PUSH1 0x0 PUSH2 0x1184 DUP3 PUSH2 0x9F1 JUMP JUMPDEST SWAP2 POP PUSH2 0x118F DUP4 PUSH2 0x9F1 JUMP JUMPDEST SWAP3 POP DUP3 PUSH2 0x119F JUMPI PUSH2 0x119E PUSH2 0x114A JUMP JUMPDEST JUMPDEST DUP3 DUP3 MOD SWAP1 POP SWAP3 SWAP2 POP POP JUMP JUMPDEST PUSH1 0x0 DUP2 SWAP1 POP SWAP3 SWAP2 POP POP JUMP JUMPDEST POP JUMP JUMPDEST PUSH1 0x0 PUSH2 0x11C5 PUSH1 0x0 DUP4 PUSH2 0x11AA JUMP JUMPDEST SWAP2 POP PUSH2 0x11D0 DUP3 PUSH2 0x11B5 JUMP JUMPDEST PUSH1 0x0 DUP3 ADD SWAP1 POP SWAP2 SWAP1 POP JUMP JUMPDEST PUSH1 0x0 PUSH2 0x11E6 DUP3 PUSH2 0x11B8 JUMP JUMPDEST SWAP2 POP DUP2 SWAP1 POP SWAP2 SWAP1 POP JUMP INVALID LOG2 PUSH5 0x6970667358 0x22 SLT KECCAK256 PUSH17 0x805EB1DC480EA796F299406FAB931877F1 PUSH24 0x77B40EFC6B374D3641AEE8365764736F6C63430008080033 "},"gasEstimates":{"creation":{"codeDepositCost":"929200","executionCost":"infinite","totalCost":"infinite"},"external":{"checkUpkeep(bytes)":"infinite","enterRaffle()":"infinite","getEntranceFee()":"infinite","getPlayers(uint256)":"4989","getRecentWinner()":"2566","performUpkeep(bytes)":"infinite","rawFulfillRandomWords(uint256,uint256[])":"infinite"},"internal":{"fulfillRandomWords(uint256,uint256[] memory)":"infinite"}},"methodIdentifiers":{"checkUpkeep(bytes)":"6e04ff0d","enterRaffle()":"2cfcc539","getEntranceFee()":"09bc33a7","getPlayers(uint256)":"460e2049","getRecentWinner()":"473f1ddc","performUpkeep(bytes)":"4585e33b","rawFulfillRandomWords(uint256,uint256[])":"1fe543e3"}},"storageLayout":{"storage":[{"astId":208,"contract":"contracts/Raffle.sol:Raffle","label":"s_players","offset":0,"slot":"0","type":"t_array(t_address_payable)dyn_storage"},{"astId":211,"contract":"contracts/Raffle.sol:Raffle","label":"i_vrfCoordinator","offset":0,"slot":"1","type":"t_contract(VRFCoordinatorV2Interface)176"},{"astId":225,"contract":"contracts/Raffle.sol:Raffle","label":"s_recentWinner","offset":0,"slot":"2","type":"t_address"},{"astId":228,"contract":"contracts/Raffle.sol:Raffle","label":"s_raffleState","offset":20,"slot":"2","type":"t_enum(RaffleState)203"},{"astId":230,"contract":"contracts/Raffle.sol:Raffle","label":"s_lastTimeStamp","offset":0,"slot":"3","type":"t_uint256"}],"types":{"t_address":{"encoding":"inplace","label":"address","numberOfBytes":"20"},"t_address_payable":{"encoding":"inplace","label":"address payable","numberOfBytes":"20"},"t_array(t_address_payable)dyn_storage":{"base":"t_address_payable","encoding":"dynamic_array","label":"address payable[]","numberOfBytes":"32"},"t_contract(VRFCoordinatorV2Interface)176":{"encoding":"inplace","label":"contract VRFCoordinatorV2Interface","numberOfBytes":"20"},"t_enum(RaffleState)203":{"encoding":"inplace","label":"enum Raffle.RaffleState","numberOfBytes":"1"},"t_uint256":{"encoding":"inplace","label":"uint256","numberOfBytes":"32"}}},"userdoc":{"kind":"user","methods":{"getEntranceFee()":{"notice":"view/pure functions "}},"notice":"This contract is for creating an untamperable lottery contaract","version":1}}}}