{
  "_format": "hh-sol-artifact-1",
  "contractName": "Raffle",
  "sourceName": "contracts/Raffle.sol",
  "abi": [
    {
      "inputs": [
        {
          "internalType": "address",
          "name": "vrfCoordinatorV2",
          "type": "address"
        },
        {
          "internalType": "uint256",
          "name": "entranceFee",
          "type": "uint256"
        },
        {
          "internalType": "bytes32",
          "name": "keyHash",
          "type": "bytes32"
        },
        {
          "internalType": "uint64",
          "name": "subscriptionId",
          "type": "uint64"
        },
        {
          "internalType": "uint32",
          "name": "callbackGasLimit",
          "type": "uint32"
        },
        {
          "internalType": "uint256",
          "name": "interval",
          "type": "uint256"
        }
      ],
      "stateMutability": "nonpayable",
      "type": "constructor"
    },
    {
      "inputs": [
        {
          "internalType": "address",
          "name": "have",
          "type": "address"
        },
        {
          "internalType": "address",
          "name": "want",
          "type": "address"
        }
      ],
      "name": "OnlyCoordinatorCanFulfill",
      "type": "error"
    },
    {
      "inputs": [],
      "name": "Raffle__NotEnoughETHEntered",
      "type": "error"
    },
    {
      "inputs": [],
      "name": "Raffle__NotOpen",
      "type": "error"
    },
    {
      "inputs": [],
      "name": "Raffle__TransferFailed",
      "type": "error"
    },
    {
      "inputs": [
        {
          "internalType": "uint256",
          "name": "currentBalance",
          "type": "uint256"
        },
        {
          "internalType": "uint256",
          "name": "numPlayers",
          "type": "uint256"
        },
        {
          "internalType": "uint256",
          "name": "raffleState",
          "type": "uint256"
        }
      ],
      "name": "Raffle__UpkeepNotNeeded",
      "type": "error"
    },
    {
      "anonymous": false,
      "inputs": [
        {
          "indexed": true,
          "internalType": "address",
          "name": "player",
          "type": "address"
        }
      ],
      "name": "RaffleEnter",
      "type": "event"
    },
    {
      "anonymous": false,
      "inputs": [
        {
          "indexed": true,
          "internalType": "uint256",
          "name": "requestId",
          "type": "uint256"
        }
      ],
      "name": "RequestedRaffleWinner",
      "type": "event"
    },
    {
      "anonymous": false,
      "inputs": [
        {
          "indexed": true,
          "internalType": "address",
          "name": "winner",
          "type": "address"
        }
      ],
      "name": "WinnerPicked",
      "type": "event"
    },
    {
      "inputs": [
        {
          "internalType": "bytes",
          "name": "",
          "type": "bytes"
        }
      ],
      "name": "checkUpkeep",
      "outputs": [
        {
          "internalType": "bool",
          "name": "upkeepNeeded",
          "type": "bool"
        },
        {
          "internalType": "bytes",
          "name": "",
          "type": "bytes"
        }
      ],
      "stateMutability": "view",
      "type": "function"
    },
    {
      "inputs": [],
      "name": "enterRaffle",
      "outputs": [],
      "stateMutability": "payable",
      "type": "function"
    },
    {
      "inputs": [],
      "name": "getEntranceFee",
      "outputs": [
        {
          "internalType": "uint256",
          "name": "",
          "type": "uint256"
        }
      ],
      "stateMutability": "view",
      "type": "function"
    },
    {
      "inputs": [
        {
          "internalType": "uint256",
          "name": "index",
          "type": "uint256"
        }
      ],
      "name": "getPlayers",
      "outputs": [
        {
          "internalType": "address",
          "name": "",
          "type": "address"
        }
      ],
      "stateMutability": "view",
      "type": "function"
    },
    {
      "inputs": [],
      "name": "getRecentWinner",
      "outputs": [
        {
          "internalType": "address",
          "name": "",
          "type": "address"
        }
      ],
      "stateMutability": "view",
      "type": "function"
    },
    {
      "inputs": [
        {
          "internalType": "bytes",
          "name": "",
          "type": "bytes"
        }
      ],
      "name": "performUpkeep",
      "outputs": [],
      "stateMutability": "nonpayable",
      "type": "function"
    },
    {
      "inputs": [
        {
          "internalType": "uint256",
          "name": "requestId",
          "type": "uint256"
        },
        {
          "internalType": "uint256[]",
          "name": "randomWords",
          "type": "uint256[]"
        }
      ],
      "name": "rawFulfillRandomWords",
      "outputs": [],
      "stateMutability": "nonpayable",
      "type": "function"
    }
  ],
  "bytecode": "0x6101406040523480156200001257600080fd5b5060405162001623380380620016238339818101604052810190620000389190620002cb565b858073ffffffffffffffffffffffffffffffffffffffff1660808173ffffffffffffffffffffffffffffffffffffffff1660601b81525050508460a08181525050600160009054906101000a900473ffffffffffffffffffffffffffffffffffffffff16600160006101000a81548173ffffffffffffffffffffffffffffffffffffffff021916908373ffffffffffffffffffffffffffffffffffffffff1602179055508360c081815250508267ffffffffffffffff1660e08167ffffffffffffffff1660c01b815250508163ffffffff166101008163ffffffff1660e01b815250506000600260146101000a81548160ff0219169083600181111562000144576200014362000367565b5b02179055504260038190555080610120818152505050505050505062000396565b600080fd5b600073ffffffffffffffffffffffffffffffffffffffff82169050919050565b600062000197826200016a565b9050919050565b620001a9816200018a565b8114620001b557600080fd5b50565b600081519050620001c9816200019e565b92915050565b6000819050919050565b620001e481620001cf565b8114620001f057600080fd5b50565b6000815190506200020481620001d9565b92915050565b6000819050919050565b6200021f816200020a565b81146200022b57600080fd5b50565b6000815190506200023f8162000214565b92915050565b600067ffffffffffffffff82169050919050565b620002648162000245565b81146200027057600080fd5b50565b600081519050620002848162000259565b92915050565b600063ffffffff82169050919050565b620002a5816200028a565b8114620002b157600080fd5b50565b600081519050620002c5816200029a565b92915050565b60008060008060008060c08789031215620002eb57620002ea62000165565b5b6000620002fb89828a01620001b8565b96505060206200030e89828a01620001f3565b95505060406200032189828a016200022e565b94505060606200033489828a0162000273565b93505060806200034789828a01620002b4565b92505060a06200035a89828a01620001f3565b9150509295509295509295565b7f4e487b7100000000000000000000000000000000000000000000000000000000600052602160045260246000fd5b60805160601c60a05160c05160e05160c01c6101005160e01c61012051611226620003fd60003960006106af0152600061053301526000610510015260006104ef0152600081816101a6015261028c0152600081816101cc015261022001526112266000f3fe6080604052600436106100705760003560e01c80634585e33b1161004e5780634585e33b146100d3578063460e2049146100fc578063473f1ddc146101395780636e04ff0d1461016457610070565b806309bc33a7146100755780631fe543e3146100a05780632cfcc539146100c9575b600080fd5b34801561008157600080fd5b5061008a6101a2565b6040516100979190610a0a565b60405180910390f35b3480156100ac57600080fd5b506100c760048036038101906100c29190610bbe565b6101ca565b005b6100d161028a565b005b3480156100df57600080fd5b506100fa60048036038101906100f59190610c75565b6103f9565b005b34801561010857600080fd5b50610123600480360381019061011e9190610cc2565b6105fb565b6040516101309190610d30565b60405180910390f35b34801561014557600080fd5b5061014e610642565b60405161015b9190610d30565b60405180910390f35b34801561017057600080fd5b5061018b60048036038101906101869190610e00565b61066c565b604051610199929190610eec565b60405180910390f35b60007f0000000000000000000000000000000000000000000000000000000000000000905090565b7f000000000000000000000000000000000000000000000000000000000000000073ffffffffffffffffffffffffffffffffffffffff163373ffffffffffffffffffffffffffffffffffffffff161461027c57337f00000000000000000000000000000000000000000000000000000000000000006040517f1cf993f4000000000000000000000000000000000000000000000000000000008152600401610273929190610f1c565b60405180910390fd5b6102868282610719565b5050565b7f00000000000000000000000000000000000000000000000000000000000000003410156102e4576040517fbd4e069500000000000000000000000000000000000000000000000000000000815260040160405180910390fd5b600060018111156102f8576102f7610f45565b5b600260149054906101000a900460ff16600181111561031a57610319610f45565b5b14610351576040517f1425571c00000000000000000000000000000000000000000000000000000000815260040160405180910390fd5b6000339080600181540180825580915050600190039060005260206000200160009091909190916101000a81548173ffffffffffffffffffffffffffffffffffffffff021916908373ffffffffffffffffffffffffffffffffffffffff1602179055503373ffffffffffffffffffffffffffffffffffffffff167f0805e1d667bddb8a95f0f09880cf94f403fb596ce79928d9f29b74203ba284d460405160405180910390a2565b60006104136040518060200160405280600081525061066c565b509050806104825747600080549050600260149054906101000a900460ff16600181111561044457610443610f45565b5b6040517f584327aa00000000000000000000000000000000000000000000000000000000815260040161047993929190610f74565b60405180910390fd5b6001600260146101000a81548160ff021916908360018111156104a8576104a7610f45565b5b02179055506000600160009054906101000a900473ffffffffffffffffffffffffffffffffffffffff1673ffffffffffffffffffffffffffffffffffffffff16635d3b1d307f00000000000000000000000000000000000000000000000000000000000000007f000000000000000000000000000000000000000000000000000000000000000060037f000000000000000000000000000000000000000000000000000000000000000060016040518663ffffffff1660e01b8152600401610574959493929190611023565b602060405180830381600087803b15801561058e57600080fd5b505af11580156105a2573d6000803e3d6000fd5b505050506040513d601f19601f820116820180604052508101906105c6919061108b565b9050807fcd6e45c8998311cab7e9d4385596cac867e20a0587194b954fa3a731c93ce78b60405160405180910390a250505050565b60008082815481106106105761060f6110b8565b5b9060005260206000200160009054906101000a900473ffffffffffffffffffffffffffffffffffffffff169050919050565b6000600260009054906101000a900473ffffffffffffffffffffffffffffffffffffffff16905090565b600060606000600260149054906101000a900460ff16600181111561069457610693610f45565b5b600060018111156106a8576106a7610f45565b5b14905060007f0000000000000000000000000000000000000000000000000000000000000000600354426106dc9190611116565b119050600080600080549050119050600080471190508380156106fc5750825b80156107055750815b801561070e5750805b955050505050915091565b6000808054905082600081518110610734576107336110b8565b5b60200260200101516107469190611179565b9050600080828154811061075d5761075c6110b8565b5b9060005260206000200160009054906101000a900473ffffffffffffffffffffffffffffffffffffffff16905080600260006101000a81548173ffffffffffffffffffffffffffffffffffffffff021916908373ffffffffffffffffffffffffffffffffffffffff1602179055506000600260146101000a81548160ff021916908360018111156107f1576107f0610f45565b5b0217905550600067ffffffffffffffff81111561081157610810610a7b565b5b60405190808252806020026020018201604052801561083f5781602001602082028036833780820191505090505b506000908051906020019061085592919061094a565b504260038190555060008173ffffffffffffffffffffffffffffffffffffffff1647604051610883906111db565b60006040518083038185875af1925050503d80600081146108c0576040519150601f19603f3d011682016040523d82523d6000602084013e6108c5565b606091505b5050905080610900576040517fa1d04b3900000000000000000000000000000000000000000000000000000000815260040160405180910390fd5b8173ffffffffffffffffffffffffffffffffffffffff167f5b690ec4a06fe979403046eaeea5b3ce38524683c3001f662c8b5a829632f7df60405160405180910390a25050505050565b8280548282559060005260206000209081019282156109c3579160200282015b828111156109c25782518260006101000a81548173ffffffffffffffffffffffffffffffffffffffff021916908373ffffffffffffffffffffffffffffffffffffffff1602179055509160200191906001019061096a565b5b5090506109d091906109d4565b5090565b5b808211156109ed5760008160009055506001016109d5565b5090565b6000819050919050565b610a04816109f1565b82525050565b6000602082019050610a1f60008301846109fb565b92915050565b6000604051905090565b600080fd5b600080fd5b610a42816109f1565b8114610a4d57600080fd5b50565b600081359050610a5f81610a39565b92915050565b600080fd5b6000601f19601f8301169050919050565b7f4e487b7100000000000000000000000000000000000000000000000000000000600052604160045260246000fd5b610ab382610a6a565b810181811067ffffffffffffffff82111715610ad257610ad1610a7b565b5b80604052505050565b6000610ae5610a25565b9050610af18282610aaa565b919050565b600067ffffffffffffffff821115610b1157610b10610a7b565b5b602082029050602081019050919050565b600080fd5b6000610b3a610b3584610af6565b610adb565b90508083825260208201905060208402830185811115610b5d57610b5c610b22565b5b835b81811015610b865780610b728882610a50565b845260208401935050602081019050610b5f565b5050509392505050565b600082601f830112610ba557610ba4610a65565b5b8135610bb5848260208601610b27565b91505092915050565b60008060408385031215610bd557610bd4610a2f565b5b6000610be385828601610a50565b925050602083013567ffffffffffffffff811115610c0457610c03610a34565b5b610c1085828601610b90565b9150509250929050565b600080fd5b60008083601f840112610c3557610c34610a65565b5b8235905067ffffffffffffffff811115610c5257610c51610c1a565b5b602083019150836001820283011115610c6e57610c6d610b22565b5b9250929050565b60008060208385031215610c8c57610c8b610a2f565b5b600083013567ffffffffffffffff811115610caa57610ca9610a34565b5b610cb685828601610c1f565b92509250509250929050565b600060208284031215610cd857610cd7610a2f565b5b6000610ce684828501610a50565b91505092915050565b600073ffffffffffffffffffffffffffffffffffffffff82169050919050565b6000610d1a82610cef565b9050919050565b610d2a81610d0f565b82525050565b6000602082019050610d456000830184610d21565b92915050565b600080fd5b600067ffffffffffffffff821115610d6b57610d6a610a7b565b5b610d7482610a6a565b9050602081019050919050565b82818337600083830152505050565b6000610da3610d9e84610d50565b610adb565b905082815260208101848484011115610dbf57610dbe610d4b565b5b610dca848285610d81565b509392505050565b600082601f830112610de757610de6610a65565b5b8135610df7848260208601610d90565b91505092915050565b600060208284031215610e1657610e15610a2f565b5b600082013567ffffffffffffffff811115610e3457610e33610a34565b5b610e4084828501610dd2565b91505092915050565b60008115159050919050565b610e5e81610e49565b82525050565b600081519050919050565b600082825260208201905092915050565b60005b83811015610e9e578082015181840152602081019050610e83565b83811115610ead576000848401525b50505050565b6000610ebe82610e64565b610ec88185610e6f565b9350610ed8818560208601610e80565b610ee181610a6a565b840191505092915050565b6000604082019050610f016000830185610e55565b8181036020830152610f138184610eb3565b90509392505050565b6000604082019050610f316000830185610d21565b610f3e6020830184610d21565b9392505050565b7f4e487b7100000000000000000000000000000000000000000000000000000000600052602160045260246000fd5b6000606082019050610f8960008301866109fb565b610f9660208301856109fb565b610fa360408301846109fb565b949350505050565b6000819050919050565b610fbe81610fab565b82525050565b600067ffffffffffffffff82169050919050565b610fe181610fc4565b82525050565b600061ffff82169050919050565b610ffe81610fe7565b82525050565b600063ffffffff82169050919050565b61101d81611004565b82525050565b600060a0820190506110386000830188610fb5565b6110456020830187610fd8565b6110526040830186610ff5565b61105f6060830185611014565b61106c6080830184611014565b9695505050505050565b60008151905061108581610a39565b92915050565b6000602082840312156110a1576110a0610a2f565b5b60006110af84828501611076565b91505092915050565b7f4e487b7100000000000000000000000000000000000000000000000000000000600052603260045260246000fd5b7f4e487b7100000000000000000000000000000000000000000000000000000000600052601160045260246000fd5b6000611121826109f1565b915061112c836109f1565b92508282101561113f5761113e6110e7565b5b828203905092915050565b7f4e487b7100000000000000000000000000000000000000000000000000000000600052601260045260246000fd5b6000611184826109f1565b915061118f836109f1565b92508261119f5761119e61114a565b5b828206905092915050565b600081905092915050565b50565b60006111c56000836111aa565b91506111d0826111b5565b600082019050919050565b60006111e6826111b8565b915081905091905056fea264697066735822122070805eb1dc480ea796f299406fab931877f17777b40efc6b374d3641aee8365764736f6c63430008080033",
  "linkReferences": {},
  "deployedLinkReferences": {}
}