{
  "_format": "hh-sol-artifact-1",
  "contractName": "Raffle",
  "sourceName": "contracts/Raffle.sol",
  "abi": [
    {
      "inputs": [
        {
          "internalType": "address",
          "name": "vrfCoordinatorV2",
          "type": "address"
        },
        {
          "internalType": "uint256",
          "name": "entranceFee",
          "type": "uint256"
        },
        {
          "internalType": "bytes32",
          "name": "keyHash",
          "type": "bytes32"
        },
        {
          "internalType": "uint64",
          "name": "subscriptionId",
          "type": "uint64"
        },
        {
          "internalType": "uint32",
          "name": "callbackGasLimit",
          "type": "uint32"
        },
        {
          "internalType": "uint256",
          "name": "interval",
          "type": "uint256"
        }
      ],
      "stateMutability": "nonpayable",
      "type": "constructor"
    },
    {
      "inputs": [
        {
          "internalType": "address",
          "name": "have",
          "type": "address"
        },
        {
          "internalType": "address",
          "name": "want",
          "type": "address"
        }
      ],
      "name": "OnlyCoordinatorCanFulfill",
      "type": "error"
    },
    {
      "inputs": [],
      "name": "Raffle__NotEnoughETHEntered",
      "type": "error"
    },
    {
      "inputs": [],
      "name": "Raffle__NotOpen",
      "type": "error"
    },
    {
      "inputs": [],
      "name": "Raffle__TransferFailed",
      "type": "error"
    },
    {
      "inputs": [
        {
          "internalType": "uint256",
          "name": "currentBalance",
          "type": "uint256"
        },
        {
          "internalType": "uint256",
          "name": "numPlayers",
          "type": "uint256"
        },
        {
          "internalType": "uint256",
          "name": "raffleState",
          "type": "uint256"
        }
      ],
      "name": "Raffle__UpkeepNotNeeded",
      "type": "error"
    },
    {
      "anonymous": false,
      "inputs": [
        {
          "indexed": true,
          "internalType": "address",
          "name": "player",
          "type": "address"
        }
      ],
      "name": "RaffleEnter",
      "type": "event"
    },
    {
      "anonymous": false,
      "inputs": [
        {
          "indexed": true,
          "internalType": "uint256",
          "name": "requestId",
          "type": "uint256"
        }
      ],
      "name": "RequestedRaffleWinner",
      "type": "event"
    },
    {
      "anonymous": false,
      "inputs": [
        {
          "indexed": true,
          "internalType": "address",
          "name": "winner",
          "type": "address"
        }
      ],
      "name": "WinnerPicked",
      "type": "event"
    },
    {
      "inputs": [
        {
          "internalType": "bytes",
          "name": "",
          "type": "bytes"
        }
      ],
      "name": "checkUpkeep",
      "outputs": [
        {
          "internalType": "bool",
          "name": "upkeepNeeded",
          "type": "bool"
        },
        {
          "internalType": "bytes",
          "name": "",
          "type": "bytes"
        }
      ],
      "stateMutability": "nonpayable",
      "type": "function"
    },
    {
      "inputs": [],
      "name": "enterRaffle",
      "outputs": [],
      "stateMutability": "payable",
      "type": "function"
    },
    {
      "inputs": [],
      "name": "getEntranceFee",
      "outputs": [
        {
          "internalType": "uint256",
          "name": "",
          "type": "uint256"
        }
      ],
      "stateMutability": "view",
      "type": "function"
    },
    {
      "inputs": [],
      "name": "getLatestTimeStamp",
      "outputs": [
        {
          "internalType": "uint256",
          "name": "",
          "type": "uint256"
        }
      ],
      "stateMutability": "view",
      "type": "function"
    },
    {
      "inputs": [],
      "name": "getNumWords",
      "outputs": [
        {
          "internalType": "uint256",
          "name": "",
          "type": "uint256"
        }
      ],
      "stateMutability": "pure",
      "type": "function"
    },
    {
      "inputs": [],
      "name": "getNumberOfPlayers",
      "outputs": [
        {
          "internalType": "uint256",
          "name": "",
          "type": "uint256"
        }
      ],
      "stateMutability": "view",
      "type": "function"
    },
    {
      "inputs": [
        {
          "internalType": "uint256",
          "name": "index",
          "type": "uint256"
        }
      ],
      "name": "getPlayers",
      "outputs": [
        {
          "internalType": "address",
          "name": "",
          "type": "address"
        }
      ],
      "stateMutability": "view",
      "type": "function"
    },
    {
      "inputs": [],
      "name": "getRaffleState",
      "outputs": [
        {
          "internalType": "enum Raffle.RaffleState",
          "name": "",
          "type": "uint8"
        }
      ],
      "stateMutability": "view",
      "type": "function"
    },
    {
      "inputs": [],
      "name": "getRecentWinner",
      "outputs": [
        {
          "internalType": "address",
          "name": "",
          "type": "address"
        }
      ],
      "stateMutability": "view",
      "type": "function"
    },
    {
      "inputs": [],
      "name": "getRequestConfirmations",
      "outputs": [
        {
          "internalType": "uint256",
          "name": "",
          "type": "uint256"
        }
      ],
      "stateMutability": "view",
      "type": "function"
    },
    {
      "inputs": [
        {
          "internalType": "bytes",
          "name": "",
          "type": "bytes"
        }
      ],
      "name": "performUpkeep",
      "outputs": [],
      "stateMutability": "nonpayable",
      "type": "function"
    },
    {
      "inputs": [
        {
          "internalType": "uint256",
          "name": "requestId",
          "type": "uint256"
        },
        {
          "internalType": "uint256[]",
          "name": "randomWords",
          "type": "uint256[]"
        }
      ],
      "name": "rawFulfillRandomWords",
      "outputs": [],
      "stateMutability": "nonpayable",
      "type": "function"
    }
  ],
  "bytecode": "0x6101406040523480156200001257600080fd5b50604051620017dd380380620017dd8339818101604052810190620000389190620002cb565b858073ffffffffffffffffffffffffffffffffffffffff1660808173ffffffffffffffffffffffffffffffffffffffff1660601b81525050508460a08181525050600160009054906101000a900473ffffffffffffffffffffffffffffffffffffffff16600160006101000a81548173ffffffffffffffffffffffffffffffffffffffff021916908373ffffffffffffffffffffffffffffffffffffffff1602179055508360c081815250508267ffffffffffffffff1660e08167ffffffffffffffff1660c01b815250508163ffffffff166101008163ffffffff1660e01b815250506000600260146101000a81548160ff0219169083600181111562000144576200014362000367565b5b02179055504260038190555080610120818152505050505050505062000396565b600080fd5b600073ffffffffffffffffffffffffffffffffffffffff82169050919050565b600062000197826200016a565b9050919050565b620001a9816200018a565b8114620001b557600080fd5b50565b600081519050620001c9816200019e565b92915050565b6000819050919050565b620001e481620001cf565b8114620001f057600080fd5b50565b6000815190506200020481620001d9565b92915050565b6000819050919050565b6200021f816200020a565b81146200022b57600080fd5b50565b6000815190506200023f8162000214565b92915050565b600067ffffffffffffffff82169050919050565b620002648162000245565b81146200027057600080fd5b50565b600081519050620002848162000259565b92915050565b600063ffffffff82169050919050565b620002a5816200028a565b8114620002b157600080fd5b50565b600081519050620002c5816200029a565b92915050565b60008060008060008060c08789031215620002eb57620002ea62000165565b5b6000620002fb89828a01620001b8565b96505060206200030e89828a01620001f3565b95505060406200032189828a016200022e565b94505060606200033489828a0162000273565b93505060806200034789828a01620002b4565b92505060a06200035a89828a01620001f3565b9150509295509295509295565b7f4e487b7100000000000000000000000000000000000000000000000000000000600052602160045260246000fd5b60805160601c60a05160c05160e05160c01c6101005160e01c610120516113e0620003fd60003960006107fa015260006106620152600061063f0152600061061e0152600081816102b401526103b10152600081816102f1015261034501526113e06000f3fe6080604052600436106100a75760003560e01c8063460e204911610064578063460e204914610189578063473f1ddc146101c657806353a2c19a146101f15780635f1b0fd81461021c5780636e04ff0d14610247578063fd6673f514610285576100a7565b806309bc33a7146100ac578063115cbaf5146100d75780631fe543e3146101025780632cfcc5391461012b578063320229eb146101355780634585e33b14610160575b600080fd5b3480156100b857600080fd5b506100c16102b0565b6040516100ce9190610b61565b60405180910390f35b3480156100e357600080fd5b506100ec6102d8565b6040516100f99190610bf3565b60405180910390f35b34801561010e57600080fd5b5061012960048036038101906101249190610da7565b6102ef565b005b6101336103af565b005b34801561014157600080fd5b5061014a61051e565b6040516101579190610b61565b60405180910390f35b34801561016c57600080fd5b5061018760048036038101906101829190610e5e565b610528565b005b34801561019557600080fd5b506101b060048036038101906101ab9190610eab565b61072a565b6040516101bd9190610f19565b60405180910390f35b3480156101d257600080fd5b506101db610771565b6040516101e89190610f19565b60405180910390f35b3480156101fd57600080fd5b5061020661079b565b6040516102139190610b61565b60405180910390f35b34801561022857600080fd5b506102316107aa565b60405161023e9190610b61565b60405180910390f35b34801561025357600080fd5b5061026e60048036038101906102699190610fe9565b6107b7565b60405161027c9291906110d5565b60405180910390f35b34801561029157600080fd5b5061029a610864565b6040516102a79190610b61565b60405180910390f35b60007f0000000000000000000000000000000000000000000000000000000000000000905090565b6000600260149054906101000a900460ff16905090565b7f000000000000000000000000000000000000000000000000000000000000000073ffffffffffffffffffffffffffffffffffffffff163373ffffffffffffffffffffffffffffffffffffffff16146103a157337f00000000000000000000000000000000000000000000000000000000000000006040517f1cf993f4000000000000000000000000000000000000000000000000000000008152600401610398929190611105565b60405180910390fd5b6103ab8282610870565b5050565b7f0000000000000000000000000000000000000000000000000000000000000000341015610409576040517fbd4e069500000000000000000000000000000000000000000000000000000000815260040160405180910390fd5b6000600181111561041d5761041c610b7c565b5b600260149054906101000a900460ff16600181111561043f5761043e610b7c565b5b14610476576040517f1425571c00000000000000000000000000000000000000000000000000000000815260040160405180910390fd5b6000339080600181540180825580915050600190039060005260206000200160009091909190916101000a81548173ffffffffffffffffffffffffffffffffffffffff021916908373ffffffffffffffffffffffffffffffffffffffff1602179055503373ffffffffffffffffffffffffffffffffffffffff167f0805e1d667bddb8a95f0f09880cf94f403fb596ce79928d9f29b74203ba284d460405160405180910390a2565b6000600354905090565b6000610542604051806020016040528060008152506107b7565b509050806105b15747600080549050600260149054906101000a900460ff16600181111561057357610572610b7c565b5b6040517f584327aa0000000000000000000000000000000000000000000000000000000081526004016105a89392919061112e565b60405180910390fd5b6001600260146101000a81548160ff021916908360018111156105d7576105d6610b7c565b5b02179055506000600160009054906101000a900473ffffffffffffffffffffffffffffffffffffffff1673ffffffffffffffffffffffffffffffffffffffff16635d3b1d307f00000000000000000000000000000000000000000000000000000000000000007f000000000000000000000000000000000000000000000000000000000000000060037f000000000000000000000000000000000000000000000000000000000000000060016040518663ffffffff1660e01b81526004016106a39594939291906111dd565b602060405180830381600087803b1580156106bd57600080fd5b505af11580156106d1573d6000803e3d6000fd5b505050506040513d601f19601f820116820180604052508101906106f59190611245565b9050807fcd6e45c8998311cab7e9d4385596cac867e20a0587194b954fa3a731c93ce78b60405160405180910390a250505050565b600080828154811061073f5761073e611272565b5b9060005260206000200160009054906101000a900473ffffffffffffffffffffffffffffffffffffffff169050919050565b6000600260009054906101000a900473ffffffffffffffffffffffffffffffffffffffff16905090565b6000600163ffffffff16905090565b6000600361ffff16905090565b600060606000600260149054906101000a900460ff1660018111156107df576107de610b7c565b5b600060018111156107f3576107f2610b7c565b5b14905060007f00000000000000000000000000000000000000000000000000000000000000006003544261082791906112d0565b119050600080600080549050119050600080471190508380156108475750825b80156108505750815b80156108595750805b955050505050915091565b60008080549050905090565b600080805490508260008151811061088b5761088a611272565b5b602002602001015161089d9190611333565b905060008082815481106108b4576108b3611272565b5b9060005260206000200160009054906101000a900473ffffffffffffffffffffffffffffffffffffffff16905080600260006101000a81548173ffffffffffffffffffffffffffffffffffffffff021916908373ffffffffffffffffffffffffffffffffffffffff1602179055506000600260146101000a81548160ff0219169083600181111561094857610947610b7c565b5b0217905550600067ffffffffffffffff81111561096857610967610c64565b5b6040519080825280602002602001820160405280156109965781602001602082028036833780820191505090505b50600090805190602001906109ac929190610aa1565b504260038190555060008173ffffffffffffffffffffffffffffffffffffffff16476040516109da90611395565b60006040518083038185875af1925050503d8060008114610a17576040519150601f19603f3d011682016040523d82523d6000602084013e610a1c565b606091505b5050905080610a57576040517fa1d04b3900000000000000000000000000000000000000000000000000000000815260040160405180910390fd5b8173ffffffffffffffffffffffffffffffffffffffff167f5b690ec4a06fe979403046eaeea5b3ce38524683c3001f662c8b5a829632f7df60405160405180910390a25050505050565b828054828255906000526020600020908101928215610b1a579160200282015b82811115610b195782518260006101000a81548173ffffffffffffffffffffffffffffffffffffffff021916908373ffffffffffffffffffffffffffffffffffffffff16021790555091602001919060010190610ac1565b5b509050610b279190610b2b565b5090565b5b80821115610b44576000816000905550600101610b2c565b5090565b6000819050919050565b610b5b81610b48565b82525050565b6000602082019050610b766000830184610b52565b92915050565b7f4e487b7100000000000000000000000000000000000000000000000000000000600052602160045260246000fd5b60028110610bbc57610bbb610b7c565b5b50565b6000819050610bcd82610bab565b919050565b6000610bdd82610bbf565b9050919050565b610bed81610bd2565b82525050565b6000602082019050610c086000830184610be4565b92915050565b6000604051905090565b600080fd5b600080fd5b610c2b81610b48565b8114610c3657600080fd5b50565b600081359050610c4881610c22565b92915050565b600080fd5b6000601f19601f8301169050919050565b7f4e487b7100000000000000000000000000000000000000000000000000000000600052604160045260246000fd5b610c9c82610c53565b810181811067ffffffffffffffff82111715610cbb57610cba610c64565b5b80604052505050565b6000610cce610c0e565b9050610cda8282610c93565b919050565b600067ffffffffffffffff821115610cfa57610cf9610c64565b5b602082029050602081019050919050565b600080fd5b6000610d23610d1e84610cdf565b610cc4565b90508083825260208201905060208402830185811115610d4657610d45610d0b565b5b835b81811015610d6f5780610d5b8882610c39565b845260208401935050602081019050610d48565b5050509392505050565b600082601f830112610d8e57610d8d610c4e565b5b8135610d9e848260208601610d10565b91505092915050565b60008060408385031215610dbe57610dbd610c18565b5b6000610dcc85828601610c39565b925050602083013567ffffffffffffffff811115610ded57610dec610c1d565b5b610df985828601610d79565b9150509250929050565b600080fd5b60008083601f840112610e1e57610e1d610c4e565b5b8235905067ffffffffffffffff811115610e3b57610e3a610e03565b5b602083019150836001820283011115610e5757610e56610d0b565b5b9250929050565b60008060208385031215610e7557610e74610c18565b5b600083013567ffffffffffffffff811115610e9357610e92610c1d565b5b610e9f85828601610e08565b92509250509250929050565b600060208284031215610ec157610ec0610c18565b5b6000610ecf84828501610c39565b91505092915050565b600073ffffffffffffffffffffffffffffffffffffffff82169050919050565b6000610f0382610ed8565b9050919050565b610f1381610ef8565b82525050565b6000602082019050610f2e6000830184610f0a565b92915050565b600080fd5b600067ffffffffffffffff821115610f5457610f53610c64565b5b610f5d82610c53565b9050602081019050919050565b82818337600083830152505050565b6000610f8c610f8784610f39565b610cc4565b905082815260208101848484011115610fa857610fa7610f34565b5b610fb3848285610f6a565b509392505050565b600082601f830112610fd057610fcf610c4e565b5b8135610fe0848260208601610f79565b91505092915050565b600060208284031215610fff57610ffe610c18565b5b600082013567ffffffffffffffff81111561101d5761101c610c1d565b5b61102984828501610fbb565b91505092915050565b60008115159050919050565b61104781611032565b82525050565b600081519050919050565b600082825260208201905092915050565b60005b8381101561108757808201518184015260208101905061106c565b83811115611096576000848401525b50505050565b60006110a78261104d565b6110b18185611058565b93506110c1818560208601611069565b6110ca81610c53565b840191505092915050565b60006040820190506110ea600083018561103e565b81810360208301526110fc818461109c565b90509392505050565b600060408201905061111a6000830185610f0a565b6111276020830184610f0a565b9392505050565b60006060820190506111436000830186610b52565b6111506020830185610b52565b61115d6040830184610b52565b949350505050565b6000819050919050565b61117881611165565b82525050565b600067ffffffffffffffff82169050919050565b61119b8161117e565b82525050565b600061ffff82169050919050565b6111b8816111a1565b82525050565b600063ffffffff82169050919050565b6111d7816111be565b82525050565b600060a0820190506111f2600083018861116f565b6111ff6020830187611192565b61120c60408301866111af565b61121960608301856111ce565b61122660808301846111ce565b9695505050505050565b60008151905061123f81610c22565b92915050565b60006020828403121561125b5761125a610c18565b5b600061126984828501611230565b91505092915050565b7f4e487b7100000000000000000000000000000000000000000000000000000000600052603260045260246000fd5b7f4e487b7100000000000000000000000000000000000000000000000000000000600052601160045260246000fd5b60006112db82610b48565b91506112e683610b48565b9250828210156112f9576112f86112a1565b5b828203905092915050565b7f4e487b7100000000000000000000000000000000000000000000000000000000600052601260045260246000fd5b600061133e82610b48565b915061134983610b48565b92508261135957611358611304565b5b828206905092915050565b600081905092915050565b50565b600061137f600083611364565b915061138a8261136f565b600082019050919050565b60006113a082611372565b915081905091905056fea26469706673582212207b1048d088f793b166f2cf8ec47e9a6642e078d69cf23437a10c2a77eb9667b764736f6c63430008080033",
  "linkReferences": {},
  "deployedLinkReferences": {}
}